:020000040800F2
:1000000000000220A50B00088108000883080008F2
:10001000850800088708000889080008000000001B
:100020000000000000000000000000008B08000835
:100030008D080008000000008F08000891080008E3
:10004000F50B0008F50B0008F50B0008F50B000890
:10005000F50B0008F50B0008F50B0008F50B000880
:10006000F50B0008F50B0008F50B0008F50B000870
:10007000F50B0008F50B0008F50B0008F50B000860
:10008000F50B0008F50B0008F50B0008F50B000850
:10009000F50B0008F50B0008F50B0008F50B000840
:1000A000F50B0008F50B0008F50B0008F50B000830
:1000B000F50B0008F50B0008F50B0008F50B000820
:1000C000F50B0008F50B0008F50B0008F50B000810
:1000D000F50B0008F50B0008F50B0008F50B000800
:1000E000F50B0008F50B0008F50B0008F50B0008F0
:1000F000F50B0008F50B0008F50B0008F50B0008E0
:10010000F50B0008F50B0008F50B0008F50B0008CF
:10011000F50B0008F50B0008F50B0008F50B0008BF
:10012000F50B0008F50B0008F50B0008F50B0008AF
:10013000F50B00080000000000000000F50B0008AF
:10014000F50B0008F50B0008F50B0008F50B00088F
:10015000F50B0008F50B0008F50B0008F50B00087F
:10016000F50B0008F50B0008F50B0008F50B00086F
:10017000F50B0008F50B0008F50B00080000000067
:1001800000000000F50B0008000000000000000067
:10019000F50B00080000000000000000F50B00084F
:1001A000000000000000000000000000F50B000847
:1001B000F50B0008F50B0008F50B0008F50B00081F
:0401C000F50B000833
:1002000010B5054C237833B9044B13B10448AFF350
:1002100000800123237010BD54080020000000005E
:10022000D026000808B5034B1BB103490348AFF3C0
:10023000008008BD0000000058080020D0260008FB
:1002400090F800F06DE9024520F007016FF0000C16
:1002500010F0070491F820F040F049804FF00004BE
:100260006FF00700D1E9002391F840F000F1080099
:1002700082FA4CF2A4FA8CF283FA4CF3A2FA8CF3D1
:100280004BBBD1E9022382FA4CF200F10800A4FA38
:100290008CF283FA4CF3A2FA8CF3E3B9D1E904238C
:1002A00082FA4CF200F10800A4FA8CF283FA4CF3C3
:1002B000A2FA8CF37BB9D1E9062301F1200182FA7D
:1002C0004CF200F10800A4FA8CF283FA4CF3A2FA83
:1002D0008CF3002BC6D0002A04BF04301A4612BA91
:1002E000B2FA82F2FDE8024500EBD2007047D1E994
:1002F000002304F00305C4F100004FEAC50514F023
:10030000040F91F840F00CFA05F562EA05021CBFF3
:1003100063EA050362464FF00004A9E7000000000D
:1003200001F0FF01102A2BDB10F0070F08D010F8A6
:10033000013B013A8B422DD010F0070F42B3F6D1AA
:10034000F0B441EA012141EA014122F007047FF0C3
:1003500000070023F0E80256083C85EA010586EA1A
:10036000010685FA47F5A3FA87F586FA47F6A5FA56
:1003700087F68EB9EED1F0BC01F0FF0102F0070262
:1003800032B110F8013B013A83EA010313B1F8D10D
:100390000020704701387047002D06BF35460338EE
:1003A000073815F0010F07D1013015F4807F02BF27
:1003B000013015F4C03F0130F0BC0138704700BF78
:1003C000844641EA000313F003036DD1403A41D360
:1003D00051F8043B40F8043B51F8043B40F8043B1F
:1003E00051F8043B40F8043B51F8043B40F8043B0F
:1003F00051F8043B40F8043B51F8043B40F8043BFF
:1004000051F8043B40F8043B51F8043B40F8043BEE
:1004100051F8043B40F8043B51F8043B40F8043BDE
:1004200051F8043B40F8043B51F8043B40F8043BCE
:1004300051F8043B40F8043B51F8043B40F8043BBE
:1004400051F8043B40F8043B51F8043B40F8043BAE
:10045000403ABDD2303211D351F8043B40F8043B4E
:1004600051F8043B40F8043B51F8043B40F8043B8E
:1004700051F8043B40F8043B103AEDD20C3205D35E
:1004800051F8043B40F8043B043AF9D2043208D056
:10049000D2071CBF11F8013B00F8013B01D30B88C8
:1004A00003806046704700BF082A13D38B078DD0A6
:1004B00010F003038AD0C3F10403D21ADB071CBF78
:1004C00011F8013B00F8013B80D331F8023B20F8E2
:1004D000023B7BE7043AD9D3013A11F8013B00F81B
:1004E000013BF9D20B7803704B7843708B788370A3
:1004F0006046704700230F2B41D8F0B425E0826896
:100500001640866082684D79A5402A43826045681E
:100510009FB20126BE4025EA0605456045688A79F6
:10052000BA4092B22A434260C2689DB26E0003256F
:10053000B54022EA0502C260C268CD7905FA04F42A
:100540001443C46001330F2B17D801229A400C6862
:10055000A243F7D105685C000322A240D64325EAF6
:100560000202026002680D79A5402A4302600A79FE
:10057000013AD2B2012AD7D8C1E7F0BC7047704720
:10058000018370474183704730B401F007039B003B
:1005900002FA03F4C908083150F821200F2505FAA2
:1005A00003F322EA030340F8213050F821202243CC
:1005B00040F8212030BC704710B43E4B9B6803F0DC
:1005C0000C030C2B72D8DFE803F0077171712471F2
:1005D0007171277171714C00374B0360354CA36802
:1005E000C3F303133549CB5CDAB20368D3404360ED
:1005F000A268C2F382228A5CD2B223FA02F282603B
:10060000A268C2F342328A5CD2B2D340C36010BC4B
:1006100070472B4B0360E1E7264B5A685B6803F099
:100620003F0312F4800F12D0254AB2FBF3F2214BA4
:100630005B68C3F3881303FB02F31E4A5268C2F3DC
:10064000014201325200B3FBF2F30360C6E71A4ADB
:10065000B2FBF3F2174B5B68C3F3881303FB02F39F
:10066000EBE7144B5A685B6803F03F0312F4800F0A
:1006700012D0134AB2FBF3F20E4B5B68C3F388133C
:1006800003FB02F30B4A5268C2F3027201325200BA
:10069000B3FBF2F30360A1E7074AB2FBF3F2054BA9
:1006A0005B68C3F3881303FB02F3EBE7024B0360C1
:1006B00094E700BF003802400024F400000000204E
:1006C00000127A0021B1054A136B1843106370477A
:1006D000024A136B23EA000010637047003802409F
:1006E00021B1054A136C184310647047024A136C19
:1006F00023EA0000106470470038024030B585B02E
:1007000004460D46038A9BB223F44053CA88134320
:10071000038283899BB223F4B05323F00C038988AE
:1007200028896A8901430A431343A381A38A9BB2A0
:1007300023F44073AA891343A3826846FFF73CFF62
:10074000204B9C4205D003F580639C4201D0029B64
:1007500000E0039BA28912F4004F1FD103EB830337
:1007600003EB830329688900B3FBF1F1164BA3FB6C
:10077000012358090501642300FB1313A28912F415
:10078000004F14D11B0132330F4AA2FB0323C3F3E2
:1007900043132B439BB2238105B030BD03EB83038E
:1007A00003EB830329684900B3FBF1F1DEE7DA00CC
:1007B0003232054BA3FB0232C2F3421242EA050376
:1007C000E8E700BF001001401F85EB5129B1838984
:1007D0009BB243F400538381704783899BB223F417
:1007E00000539BB283817047C1F308018180704739
:1007F0008088C0F3080070470388194201D00120A7
:10080000704700207047000000B583B00121084602
:10081000FFF758FF2023009301238DF804300023B5
:100820008DF806308DF8073002238DF805306946C3
:100830000248FFF75FFE03B05DF804FB00000240D2
:1008400008B5FFF7E1FF00F00DF900F037F90A4CA9
:1008500020212046FFF794FE4FF47A7000F020F933
:1008600020212046FFF78EFE4FF47A7000F018F931
:10087000024800F089FAEAE700000240E826000892
:100880007047FEE7FEE7FEE7FEE7704770477047F8
:10089000034B1B681BB1024A1368013B136070478E
:1008A0007408002070B50C4616460025B54207DADC
:1008B00000F06AF9214601F8010B01350C46F5E715
:1008C000304670BD70B50C4616460025B54205DAB7
:1008D00014F8010B00F048F90135F7E7304670BD18
:1008E00008B503460B4A126842B10A4A106803442D
:1008F0006A46934206D8074A136008BD054A06496E
:100900001160F2E700F078F90C2303604FF0FF303C
:10091000F3E700BF70080020D80800204FF0FF3038
:1009200070474FF400534B60002070470120704720
:100930000020704782B0002301930093344A13686B
:1009400043F480331360324B1B6803F4003300938D
:10095000019B01330193009B1BB9019BB3F5A04F91
:10096000F1D12B4B1B6813F4003F06D001230093F9
:10097000009B012B04D002B0704700230093F7E7DF
:10098000234B1A6C42F080521A6422490A6842F4DE
:1009900040420A609A689A609A6842F400429A60FB
:1009A0009A6842F4A0529A601B4A5A601A6842F050
:1009B00080721A60164B1B6813F0007FFAD0154A3C
:1009C000136843F480331360124B5B6813F4803F69
:1009D000FAD0104A136843F4003313600D4B5B6880
:1009E00013F4003FFAD00D4B40F205721A60A3F5E4
:1009F00080639A6822F003029A609A6842F00202C9
:100A00009A60034B9B6803F00C03082BF9D1B2E703
:100A10000038024000700040085A4077003C024015
:100A200008B50D4B1A6842F001021A600021996066
:100A30001A6822F0847222F480321A60074A5A60DF
:100A40001A6822F480221A60D960FFF773FF044B02
:100A50004FF000629A6008BD003802401030002458
:100A600000ED00E00A4B1B680A4AA2FB03239B0926
:100A7000013BB3F1807F0AD2074A5360074BF02154
:100A800083F8231000239360072313607047FEE769
:100A900010000020D34D621010E000E000ED00E0F7
:100AA00082B00190019A044B1A60034B1B68002B23
:100AB000FBD102B0704700BF74080020F0B587B0CA
:100AC000264B1868002302221946806800F064F95A
:100AD00001210846FFF7F6FD01214FF40030FFF732
:100AE000FFFD00248DF8164001278DF817700226AF
:100AF0008DF815608DF8146004230493184D04A933
:100B00002846FFF7F7FC8DF814600823049304A926
:100B10002846FFF7EFFC072231462846FFF734FD51
:100B2000072203212846FFF72FFD4FF4E1330093FE
:100B3000ADF80440ADF80640ADF80840ADF80C4003
:100B40000C23ADF80A30074C69462046FFF7D6FD66
:100B500039462046FFF73AFE07B0F0BD14000020EA
:100B6000000002400044004010B50446C1B20548F0
:100B7000FFF73AFE40210348FFF73EFE0028F9D078
:100B8000204610BD0044004008B520210448FFF76E
:100B900033FE0028F9D00248FFF72AFE08BD00BF47
:100BA00000440040DFF834D0002103E00C4B5B58D8
:100BB000435004310B480C4B42189A42F6D30B4A6F
:100BC00002E0002342F8043B094B9A42F9D3FFF7B5
:100BD00027FF00F017F8FFF733FE704700000220F0
:100BE00014270008000000205408002054080020AA
:100BF000D4080020FEE70000014B1868704700BFD2
:100C00001400002070B50D4E0D4D761BB61006D0A9
:100C1000002455F8043B01349847A642F9D1094E07
:100C2000094D761B01F054FDB61006D0002455F88E
:100C3000043B01349847A642F9D170BD082700084B
:100C4000082700081027000808270008F0B48607C6
:100C500046D0541E002A3CD0CAB2034601E0013CF3
:100C600037D303F8012B9D07F9D1032C2AD9CDB234
:100C700045EA05250F2C45EA054534D9A4F11002B3
:100C800022F00F0C03F120071609674403F110024C
:100C900042E9045542E902551032BA42F8D1721CB9
:100CA00014F00C0F03EB021204F00F0613D0331FE5
:100CB00023F003030433134442F8045B9342FBD153
:100CC00006F003042CB1CAB21C4403F8012B9C4269
:100CD000FBD1F0BC704734461346002CF3D1F8E743
:100CE00014460346C1E71A462646E0E770B50546B6
:100CF00088B008460C46FFF7A3FA224AAB6B04946F
:100D00000126441C04A9069202220394CDE9011293
:100D1000AC680590079623B3636E13F0010FB4F926
:100D20000C309AB201D1980525D5910406D4626E93
:100D300043F4005322F40052A3816266284601AABC
:100D4000214600F09DFB636E002814BF4FF0FF3575
:100D50000A25DA0702D4A3899B0506D5284608B0E0
:100D600070BD284600F0ECF9D6E7A06D00F022FD3A
:100D7000284608B070BDA06D00F01AFDB4F90C3023
:100D80009AB2D2E704270008024B01461868FFF721
:100D9000ADBF00BF140000202DE9F043654CD4F82E
:100DA000009083B004460F4690461E46B9F1000FEE
:100DB00003D0D9F83830002B79D0B8F1020F06D023
:100DC000B8F1010F00F2A480002EC0F2A180636E82
:100DD000D90752D52146484600F056F9216B41B15A
:100DE00004F14003994202D0484600F045FA00233E
:100DF0002363B4F90C500023A36163602B0665D410
:100E000025F44A6525F00305B8F1020FA58164D0E9
:100E100001AB6A462146484600F0CEFCA389184340
:100E2000A081002E30D0002F2FD0D9F83830002BE1
:100E300039D0009B2760B342B4F90C301CBF43F497
:100E40000063A381B8F1010F04BF43F00103A38144
:100E50009AB213F00803C4E904762CD0D10755D513
:100E60007642A661666E002116F00106A16027D0C9
:100E70000026304603B0BDE8F083A3899A05A9D4C3
:100E8000A06D00F095FCA5E7009E304600F00EFD39
:100E9000074600283FD0A38943F08003A381D9F8F7
:100EA0003830002BC5D1484600F04AF9C1E7484622
:100EB00000F046F981E7A360666E16F00106D7D10F
:100EC00093051CD5304603B0BDE8F0832169484640
:100ED00000F0D2F9B4F90C5092E70026626E0021BE
:100EE00004F1430345F00205A160D7074FF001016B
:100EF000C4E90431A5812360E4D4A805E2D4A06D3F
:100F000000F058FC304603B0BDE8F083A660D3E79C
:100F10004FF0FF36D6E7009DB54204D0284600F0DA
:100F2000C5FC074620B9B4F90C504FF0FF36D5E7A1
:100F30002E46B0E714000020024B13B1024800F027
:100F400005B8704700000000AD11000800230146FD
:100F50001A46184601F0AABAB1F90C202DE9F04161
:100F60000D461107804647D46B6842F40062002B9F
:100F7000AA815DDDAC6A002C57D00023D8F8006050
:100F8000C8F8003093B212F4805255D10123E969B8
:100F90004046A047431C66D0AB89AC6A5F0705D5C5
:100FA0006A682B6B801A0BB1EB6BC01AE9690246B9
:100FB00000234046A047411C40D1D8F80030002B08
:100FC0003CD01D2B01D0162B55D1AB892A692A6044
:100FD00023F400630022AB816A60296BC8F80060CB
:100FE00019B305F14003994202D0404600F044F99C
:100FF00000202863BDE8F0812F69B7B193B22E6855
:101000002F609A070CBF6B690023F61BAB600AE0E8
:101010006C6AE96933463A464046A047041EA6EB8F
:101020000406274417DD002EF2DC0020BDE8F08125
:10103000EB6B002B9EDCF8E7286DAFE7B5F90C30C1
:101040002A692A6023F400630022AB81DB046A6012
:10105000C3D52865C1E7AB8943F04003AB814FF0AE
:10106000FF30BDE8F081D8F80030002B94D01D2B64
:1010700006D0162B04D0AB8943F04003AB81D5E7F3
:10108000C8F80060D1E700BF38B50C46054608B186
:10109000836BA3B1B4F90C00B8B1636EDB0701D464
:1010A000810515D528462146FFF756FF636EDA07FE
:1010B000054602D4A3899B050ED5284638BD00F00D
:1010C0003FF8B4F90C000028E7D10546284638BDA2
:1010D000A06D00F06DFBE5E7A06D00F06BFB28460E
:1010E00038BD00BF10B500230446C0E90033C0E995
:1010F00004338181C281836043668361194608227B
:101100005C30FFF7A3FD07480749084A084BE36234
:10111000C4E90740C4E9091204F15800BDE81040D1
:1011200000F042BB2523000849230008892300085A
:10113000A9230008014900F013BB00BF5D2500088A
:1011400010B50446114800F033FBA26BC2B904F598
:101150003B730F48C4F8E0220321C4E9B913E063EC
:1011600004216068FFF7BEFFA06801220921FFF794
:10117000B9FFE06802221221FFF7B4FF0123A36345
:10118000BDE81040014800F015BB00BFB8080020C2
:1011900035110008014800F00BBB00BFCC0800204F
:1011A000014800F007BB00BFCC08002038B5084B51
:1011B000084D5B1B9C1007D0043B1D44013C55F8B7
:1011C00004399847002CF9D1BDE8384001F086BABF
:1011D0001427000810270008F8B5244F0C460646CF
:1011E00000F092FEBB685D68C4F57E610F3125F0AA
:1011F00003054B1923F47F6323F00F03A3F58054F9
:10120000B4F5805F07DB0021304601F079F8BB6858
:101210002B44984204D0304600F07CFE0020F8BDFC
:101220006142304601F06CF801300DD0104AB968C7
:1012300013682D1B45F0010530461B1B4D601360E4
:1012400000F068FE0120F8BD0021304601F058F89A
:10125000BA68831A0F2BDEDD064C0549246843F07B
:101260000103001B53600860D5E700BF4404002061
:10127000780800204C08002000295ED0F8B50C4604
:10128000064600F041FE54F8043CDFF8F0C123F0BC
:101290000101A4F108004218DCF808705568974273
:1012A00025F0030500F08880DF07556033D454F83B
:1012B000087CC01B0CF108048368A342394469D040
:1012C0005719D0F80CE07F68C3F80CE0CEF808306E
:1012D000FB0740F1968041F0010343601160B1F5D6
:1012E000007F33D2CB08DCF8044001334A090121E6
:1012F000914021430CEBC3025CF83340CCF804105E
:10130000083AC0E902424CF83300E0603046BDE8DC
:10131000F84000F0FFBD53195B68DF070ED4294485
:101320000CF108049368A34273D0D468DC6041F0E8
:101330000102A36042604150D1E7704741F00103D0
:10134000B1F5007F44F8043C1160CBD3B1F5206FB8
:101350004FEA51234AD28B0903F13905ED0003F11D
:1013600038025CF805300CEB0504083C9C4259D06F
:101370005A6822F003028A4202D99B689C42F7D144
:10138000DC68C0E90234A060D8603046BDE8F840AF
:1013900000F0C0BD53195B68DB0766D4D2E90223B5
:1013A000294441F00104D3609A60446041503046C2
:1013B000BDE8F84000F0AEBDDB07294407D454F87F
:1013C000083CC01A1944D0E90223D3609A60294B23
:1013D0001B6841F001028B424260CCF8080095D8AE
:1013E000254B30461968FFF7F7FE8FE7142B0AD913
:1013F000542B21D80B0B03F16F05ED0003F16E02A6
:10140000AFE729448EE703F15C05ED0003F15B02D1
:10141000A7E741F00103CCE90400C0E902444360BE
:10142000415073E7DCF804109210012505FA02F22E
:101430000A43CCF80420A4E7B3F5AA7F06D8CB0B67
:1014400003F17805ED0003F177028AE740F2545288
:10145000934206D88B0C03F17D05ED0003F17C026D
:101460007FE74FF47E757E227BE741F00103436006
:1014700011604BE750080020A80800204404002019
:101480009368002B00F08A802DE9F04F9046B1F967
:101490000C200C46110783B0814693B225D52269F2
:1014A0001AB313F00207D8F800502DD00026DFF849
:1014B000ACB23746AA465F453B46324628BF5B463C
:1014C0004846002F4FD0E169656AA84700285BDDD8
:1014D000D8F808301B1A06443F1AC8F80830002B09
:1014E000E9D1002003B0BDE8F08F2146484600F066
:1014F00075FF002840F02F81B4F90C20D8F8005077
:1015000093B213F00207D1D113F0010A48D1564625
:101510002EB39A05A76840F18C80B742BB4600F213
:10152000B78013F4906F40F0CB8020685A46514644
:1015300000F07EFCA2682368D21B5B443746A260A1
:1015400023600026D8F80830DB1BBA44C8F80830FE
:10155000002BC6D0B4F90C309BB2002ED9D1D5E9FE
:1015600000A60835D4E7DAE900670AF1080AA2E71D
:1015700029465A4600F05CFC23685B442360214600
:101580004846FFF781FD58B3B4F90C3043F04003EF
:101590004FF0FF30A38103B0BDE8F08F002070470B
:1015A0003E46AA4638463D4600976EB3002833D0E3
:1015B000009A2068D4E90413B24228BF3246884218
:1015C00004D9A16803EB010B5A45D1DC93426ADCD4
:1015D000E169676A2A464846B847B0F1000BD3DD97
:1015E000009BB3EB0B03009356D00120D8F80830D2
:1015F000A3EB0B035D44A6EB0B06C8F80830002BE9
:101600003FF46FAF002ED1D10AF1080353E902561F
:101610009A460833002EF9D032460A212846FEF7B2
:101620007FFE002800F08E800130431B00931A4695
:10163000BFE720682369984214D86169B14211D884
:101640006FF00043B34228BF3346676A93FBF1F360
:10165000524601FB03F34846E169B847071E93DD94
:10166000F61B6FE7B74228BF37463A46514600F0AF
:10167000DFFBA3682268DB1B3A44A3602260002BD7
:10168000EED121464846FFF7FFFC0028E8D07BE773
:1016900020683746B34649E721464846FFF7F4FC41
:1016A0000028A3D070E72946019200F0C1FB019AFF
:1016B000A1682368891A1344A160236093468FE7C9
:1016C000D4E90417226807EB4707A2EB010B07EBED
:1016D000D7770BF101007F103044B8423A4684BFFF
:1016E00007463A465B051BD51146484600F0E6F82A
:1016F00058B35A4621690090FEF762FEA289009B0A
:1017000022F4906242F08002A281A7EB0B0203EB6D
:101710000B00676123612060A2603746B34605E78E
:10172000484600F0FDFB03460028EED121694846FB
:10173000FFF7A2FDB4F90C300C2223F08003C9F8A6
:10174000002023E7721C009233E70C23C9F8003015
:10175000B4F90C301AE74FF0FF30C3E600FCFF7F0E
:101760002DE9F8430746884600F538764FF0000922
:10177000D6E90154013D11D4A389012B05F1FF35B0
:1017800008D9B4F90E30013304D021463846C04799
:1017900049EA00096B1C04F16804EDD13668002E9B
:1017A000E6D14846BDE8F883704700BF704700BFE8
:1017B000704700BF704700BF70B50C46B1F90E10FE
:1017C000002996B015461E4614DB6A4600F02CFF31
:1017D00000280FDB019A02F47042A2F50052B2FA1F
:1017E00082F252094FF480634FF4006032602B6044
:1017F00016B070BDA189002311F08000336004D0C1
:10180000402218462A6016B070BD4FF480632B60EA
:1018100016B070BD70B58B899D0782B00C4607D598
:1018200001F143030122C1E904320B6002B070BD33
:1018300001AB6A460646FFF7BFFF009905463046F2
:1018400000F03CF8B4F90C30024670B11648F06371
:1018500001990098226043F08003C4E90420A38129
:1018600089B92B43A38102B070BD9A05DED423F061
:10187000030304F1430243F002030121C4E90421FC
:10188000A3812260D2E7B4F90E10304600F0E2FEE8
:1018900010B9B4F90C30E4E7A28922F0030242F057
:1018A000010213B2DDE700BF35110008024B01460B
:1018B000186800F003B800BF140000202DE9F04FB5
:1018C00001F10B05162D83B0064624D8102900F22D
:1018D000B78000F019FB102502211823DFF8F084EF
:1018E0004344A3F108025C68944200F0B580636849
:1018F00023F003032344D4E902515A68E96042F01B
:10190000010230468D605A6000F004FB0834204626
:1019100003B0BDE8F08F35F0070500F19180A942D2
:1019200000F28E8000F0F0FAB5F5FC7FC0F09081F7
:101930006B0A00F08C80042B00F26681AB0903F186
:10194000390103F13807CB00DFF884844344A3F165
:1019500008005C68A04206D10CE0002A80F22281D7
:10196000E468A04206D0636823F003035A1B0F2AE1
:10197000F3DD3946D8F81040DFF858C4644577D015
:10198000626822F00302531B0F2B00F36F81002BC0
:10199000C8E904CC80F26081B2F5007F80F010814C
:1019A000D3080133500901228240D8F8040058F8C6
:1019B0003370A76008EBC30E0243AEF10800E0608D
:1019C000C8F8042048F83340FC608B100120984090
:1019D000904254D8104206D121F003014000104239
:1019E00001F10401FAD008EBC1094C468E46E768C4
:1019F000BC4207D114E1002B80F21B81FF68BC427E
:101A000000F00E817A6822F00302531B0F2BF2DDE7
:101A1000D7E902E4791945F001057D6043F001053D
:101A2000CEF80C403046C4F808E0C8E90411C1E91A
:101A300002CC4D60BB5000F06DFA07F1080402E0E3
:101A40000C2333600024204603B0BDE8F08F4FF430
:101A5000007340213F2777E7DC68A34208BF0231CB
:101A60007FF445AFD8F81040DFF868C3644587D1EC
:101A7000D8F804208B10012098409042AAD9D8F8B9
:101A80000840676827F00307BD4202D87B1B0F2B75
:101A900077DCDFF84493CA4BD9F800201B68013289
:101AA0002B4404EB070A00F02E8103F580530F331B
:101AB00023F47F6B2BF00F0B5946304600F020FCCF
:101AC000411C024600F0EB80824500F2E680BD4BEF
:101AD000196859441960084600F04B81D9F8001084
:101AE000019301311BBFA2EB0A0A5044C9F8002040
:101AF000186012F0070A00F01481CAF108010A44C4
:101B0000CAF5805193440831A1EB0B01C1F30B09D5
:101B100049463046009200F0F3FB421CDDE9002309
:101B200000F05C81801A00EB090B1968C8F80820E6
:101B30004BF00100494444455060196000F0268193
:101B40000F2F40F2258160680C3F27F0070700F057
:101B5000010004EB070C38434FF0050E0F2F6060B7
:101B6000CCE901EE00F2428150681446964B1A68A7
:101B70008A4238BF1960954B1A688A4238BF19608B
:101B800090E0621943F0010345F0010565603046BD
:101B9000C8F80820536000F0BDF90834204603B0AF
:101BA000BDE8F08F2344E1685A68A56842F001025D
:101BB000E96030468D605A6000F0ACF9083442E7C5
:101BC000B2F5206F4FEA522361D3142B00F2BA8092
:101BD00003F15C00C0005B3308EB000758F800001D
:101BE000083F874200F09280436823F0030393424A
:101BF00002D980688742F7D1C768D8F80420C4E9C1
:101C00000207BC60C460E0E6142B59D9542B00F2E3
:101C1000A1802B0B03F16F0103F16E07CB0093E65C
:101C20000EF1010E1EF0030F04F108047FF4DFAE85
:101C300051E03A443C465368F96854F8085F43F071
:101C4000010353603046E9608D6000F063F9FAE605
:101C5000E90805F1080341E622443046536843F0A1
:101C600001035360083400F055F9ECE6611943F0C4
:101C7000010745F0010565603046C8E90411C1E976
:101C800002CC4F60A35000F045F90834DBE693091D
:101C900003F13900C00038339EE7444564D0D8F8DA
:101CA0000840606820F0030B5D45ABEB050302D8EC
:101CB0000F2B3FF766AF304600F02CF90024C2E648
:101CC00003F15C0103F15B07CB003DE659F80839ED
:101CD0004B4540F0AA8011F0030F01F1FF31F5D11F
:101CE000D8F8043023EA0003C8F8043040009842D2
:101CF0003FF6C5AE18B9C2E640000EF1040E184218
:101D0000FAD071466FE603F1100BD5E69A104FF04A
:101D1000010ED8F804300EFA02F21A43C8F8042073
:101D20006DE702EB0B014942C1F30B09494630460E
:101D3000009200F0E5FA431CDDE900237FF4F2AEE7
:101D4000D146F2E6542B26D8130B03F16F00C000E6
:101D50006E3341E7B3F5AA7F26D8EB0B03F1780188
:101D600003F17707CB00EFE5164B1868584418606D
:101D7000B4E6CAF30B0CBCF1000F7FF4AFAED8F899
:101D80000840BB444BF001006060EFE61446EDE60E
:101D9000012353608FE7B3F5AA7F33D8D30B03F148
:101DA0007800C000773317E740F25452934233D89B
:101DB000AB0C03F17D0103F17C07CB00C4E500BF50
:101DC000A808002078080020A0080020A40800200F
:101DD000440400204C0400204C080020AAF1080A0A
:101DE000D344ABEB020B4FF000099EE604F108016F
:101DF00030460093FFF740FAD8F80840009B60682F
:101E00001968B3E640F2545083420AD8930C03F1A8
:101E10007D00C0007C33DFE64FF47E737F217E2798
:101E200092E54FF47E707E23D6E6D8F804305DE765
:101E30008842F0B40DD98B1883420AD9841832B184
:101E4000224613F8014D02F8014D9942F9D1F0BC38
:101E500070470F2A0ED80346541E002AF7D00134CB
:101E60000C44013B11F8012B03F8012FA142F9D1D9
:101E7000F0BC704740EA01039B073FD1A2F1100379
:101E800023F00F0401F1200727441B0901F110047E
:101E900000F1100554F8106C45F8106C54F80C6CF7
:101EA00045F80C6C54F8086C45F8086C54F8046C50
:101EB00045F8046C1034BC4205F11005EAD1013339
:101EC00012F00C0F01EB031102F00F0400EB0313EF
:101ED00017D0043C24F0030CA5089C441C1F0E469C
:101EE00056F8047B44F8047F6445F9D16C1C03EB7D
:101EF000840301EB840102F00302ADE7541E0346A4
:101F0000ADE72246A8E700BF0148FFF751BC00BF7C
:101F1000BC0800200148FFF74DBC00BFBC080020F2
:101F20002DE9F84F1746002900F0BC8007F10B059A
:101F30000C468046FFF7E8FF162D5FD810252A468D
:101F4000AF4260D854F8041C21F003069642A4F175
:101F5000080980F28680C94BD3F808C009EB060057
:101F6000844500F0BA80D0F804C02CF0010303448B
:101F70005B68DB0700F18B802CF0030C06EB0C0395
:101F8000934280F21681CB070FD454F8083CA9EB9A
:101F9000030ADAF8043023F003018C44B444944576
:101FA00038DA7318934280F2108139464046FFF7C1
:101FB00085FC0746E0B154F8043C23F001034B4490
:101FC000A0F10802934200F0FA80321F242A00F2A6
:101FD0001D81132A00F2CE80034622461168196043
:101FE0005168596092689A6021464046FFF744F96B
:101FF0004046FFF78FFF3846BDE8F88F25F007050C
:10200000002D2A469CDA0C23C8F8003000273846F9
:10201000BDE8F88FD0E902235746D3609A6057F89D
:10202000081FDAF80C30CB60321F242A996000F2C6
:102030000881132A40F203812368CAF808306368D4
:10204000CAF80C301B2A00F21B8108340AF1100375
:1020500022681A6062685A60A2689A606646D14631
:102060003C46731B0F2B22D8D9F8043003F0010330
:1020700033434E44C9F80430736843F0010373607E
:1020800040462746FFF746FF3846BDE8F88FC907A8
:102090008BD454F8083CA9EB030ADAF8041021F0B9
:1020A00003017EE7BDE8F84F1146FFF707BCD9F8FA
:1020B000042009EB050102F001024E4443F0010344
:1020C0001543C9F804504B60736843F001030831AD
:1020D00073604046FFF7D0F8D2E7DCF8040020F048
:1020E000030B06EB0B0C05F1100084454DDAC90714
:1020F0003FF55BAF54F8081CA9EB010ADAF80410AD
:1021000021F003018B44B34458453FF74AAF57468B
:10211000DAF80C1057F8080F321F242AC1608860C3
:1021200000F2BC80132A40F2B7802168CAF8081078
:102130006168CAF80C101B2A00F2C08008340AF14A
:1021400010022168116061685160A16891600AEB1A
:102150000501ABEB050242F0010299604A60DAF832
:10216000043003F001031D434046CAF80450FFF752
:10217000D1FE4CE723680360636843601B2A49D89B
:1021800004F1080200F1080328E709EB0501ACEBB4
:10219000050242F0010299604A6054F8043C03F0E1
:1021A00001031D43404644F8045CFFF7B3FE274695
:1021B0002DE7D0E902121E46CA60916051E750F83F
:1021C000043C23F003031E444BE75746DAF80C1097
:1021D00057F8080F321F242AC160886027D8132AB5
:1021E00023D92168CAF808106168CAF80C101B2AA4
:1021F0002FD808340AF1100221681160616851601B
:10220000A16891601E46D1463C462AE72146FFF769
:102210000FFEE9E6A3688360E368C360242A24D044
:1022200004F1100200F11003D8E63A46E4E7214633
:1022300038461E46D146FFF7FBFD3C4611E73B46BC
:1022400006E7214638466646D146FFF7F1FD3C4693
:1022500007E7A168CAF81010E168CAF81410242A28
:1022600022D010340AF11802C6E7236903616369BA
:10227000436104F1180200F11803AFE644040020A2
:10228000A368CAF81030E368CAF81430242A21D0B1
:1022900010340AF11803DBE63A4652E72146384685
:1022A000FFF7C6FD154B52E72269CAF8182062698C
:1022B000CAF81C2018340AF120029DE7A168CAF868
:1022C0001010E168CAF81410242A0DD010340AF155
:1022D000180236E72369CAF818306369CAF81C3057
:1022E00018340AF12003B3E62269CAF8182062699B
:1022F000CAF81C2018340AF1200222E74404002006
:1023000038B5074D0022044608462A60FEF7E8FA71
:10231000431C00D038BD2B68002BFBD0236038BD98
:10232000D008002010B50C46B1F90E1000F0BAF933
:10233000002803DB236D0344236510BDA38923F428
:102340008053A38110BD00BF2DE9F041B1F90C50BD
:102350009846EB050C46174606460BD425F48055E7
:10236000B4F90E10A58143463A463046BDE8F04127
:1023700000F01EB8B1F90E100223002200F07CF923
:10238000B4F90C50EAE700BF10B50C46B1F90E10D5
:1023900000F072F9A389421C0EBF23F4805343F46A
:1023A00080532065A38110BDB1F90E1000F0C4B8B0
:1023B00070B50C46084D114600261A4603462046C5
:1023C0002E601C46FEF77EFA431C00D070BD2B68C1
:1023D000002BFBD0236070BDD008002038B5324BF5
:1023E0001B6805460C4613B19A6B002A3CD0B4F921
:1023F0000C3018079AB20CD52169A9B112F001006E
:1024000022D0606900254042A061A56011B3002080
:1024100038BDD10640D552072AD4216943F00803BC
:10242000A3819AB20029E9D102F42070B0F5007FAF
:10243000E4D028462146FFF7EDF9B4F90C302169C4
:102440009AB212F00100DCD1950758BF6069A06014
:102450000029DCD1120658BF0846D9D543F0400305
:10246000A3814FF0FF3038BD1846FEF769FEBEE786
:10247000216B51B104F14002914204D02846FEF78D
:10248000FBFEB4F90C300022226321692160002296
:10249000626023F02403C1E743F0400309222A606D
:1024A0004FF0FF30A38138BD140000202DE9F04724
:1024B000DFF880A00646DAF8000098460F469146FD
:1024C000FFF776F91A4B1B68D3F8484124B36568C7
:1024D0001F2D26DC5EB9AB1C0135DAF80000656003
:1024E00044F82370FFF766F90020BDE8F08704EB9D
:1024F00085030121C3F88890D4F88821A9400A43B4
:10250000022EC4F88821C3F80881E4D1D4F88C31B4
:102510001943C4F88C11DEE703F5A674C3F84841EB
:10252000D5E7DAF80000FFF745F94FF0FF30DCE7B8
:10253000002700084004002038B5074D002204465B
:1025400008462A60FEF7EAF9431C00D038BD2B6824
:10255000002BFBD0236038BDD008002070B50029C7
:102560004BD00C46054610B1836B002B48D0636EF0
:10257000D80734D5B4F90C30002B3ED0214628467C
:10258000FEF7EAFCE36A064633B1E169284698475C
:102590000028B8BF4FF0FF36A3891A063BD4216B41
:1025A00041B104F14003994202D02846FEF764FE8F
:1025B00000232363616C21B12846FEF75DFE0023F2
:1025C0006364FEF7E7FD636E0022DB07A28127D577
:1025D000A06DFFF7EBF8FEF7E3FD304670BDA38971
:1025E0009905CBD4A06DFFF7E3F8B4F90C30002BBC
:1025F000C4D1666E16F0010608D00026304670BDC4
:10260000FEF79EFD636ED807B4D4E8E7A06DFFF730
:10261000D1F8304670BD21692846FEF72DFEBEE791
:10262000A06DFFF7C7F8D3E738B50C46084D034651
:102630001146204600221C462A60FEF772F9431C10
:1026400000D038BD2B68002BFBD0236038BD00BF05
:10265000D008002038B5074D0022044608462A60FD
:10266000FEF764F9431C00D038BD2B68002BFBD06B
:10267000236038BDD008002070B50C46084D1146C7
:1026800000261A46034620462E601C46FEF750F9E7
:10269000431C00D070BD2B68002BFBD0236070BDA5
:1026A000D008002070B50C46084D114600261A4689
:1026B000034620462E601C46FEF7F4F8431C00D06B
:1026C00070BD2B68002BFBD0236070BDD0080020AC
:1026D000F8B500BFF8BC08BC9E467047F8B500BF0F
:0826E000F8BC08BC9E467047DF
:1026E8000D0A6E75636C656F46345F636C696F6E57
:1026F8005F746573740D0000180000200A00000064
:08270800390F0008250200084A
:0427100001020008BA
:102714000000000001020304010203040607080983
:102724000095BA0A180000200000000004030020ED
:102734006C030020D403002000000000000000000F
:102744000000000000000000000000000000000085
:102754000000000000000000000000000000000075
:102764000000000000000000000000000000000065
:102774000000000000000000000000000000000055
:102784000000000000000000000000000000000045
:102794000000000000000000000000000000000035
:1027A4000000000000000000000000000000000025
:1027B4000000000000000000000000000000000015
:1027C4000000000000000000000000000000000005
:1027D40001000000000000000E33CDAB34126DE6A2
:1027E400ECDE05000B00000000000000000000000B
:1027F40000000000000000000000000000000000D5
:1028040000000000000000000000000000000000C4
:1028140000000000000000000000000000000000B4
:1028240000000000000000000000000000000000A4
:102B5400AC08002000000000000000004404002035
:102B6400440400204C0400204C04002054040020A1
:102B7400540400205C0400205C0400206404002051
:102B8400640400206C0400206C0400207404002001
:102B9400740400207C0400207C04002084040020B1
:102BA400840400208C0400208C0400209404002061
:102BB400940400209C0400209C040020A404002011
:102BC400A4040020AC040020AC040020B4040020C1
:102BD400B4040020BC040020BC040020C404002071
:102BE400C4040020CC040020CC040020D404002021
:102BF400D4040020DC040020DC040020E4040020D1
:102C0400E4040020EC040020EC040020F404002080
:102C1400F4040020FC040020FC040020040500202F
:102C2400040500200C0500200C05002014050020DC
:102C3400140500201C0500201C050020240500208C
:102C4400240500202C0500202C050020340500203C
:102C5400340500203C0500203C05002044050020EC
:102C6400440500204C0500204C050020540500209C
:102C7400540500205C0500205C050020640500204C
:102C8400640500206C0500206C05002074050020FC
:102C9400740500207C0500207C05002084050020AC
:102CA400840500208C0500208C050020940500205C
:102CB400940500209C0500209C050020A40500200C
:102CC400A4050020AC050020AC050020B4050020BC
:102CD400B4050020BC050020BC050020C40500206C
:102CE400C4050020CC050020CC050020D40500201C
:102CF400D4050020DC050020DC050020E4050020CC
:102D0400E4050020EC050020EC050020F40500207B
:102D1400F4050020FC050020FC050020040600202A
:102D2400040600200C0600200C06002014060020D7
:102D3400140600201C0600201C0600202406002087
:102D4400240600202C0600202C0600203406002037
:102D5400340600203C0600203C06002044060020E7
:102D6400440600204C0600204C0600205406002097
:102D7400540600205C0600205C0600206406002047
:102D8400640600206C0600206C06002074060020F7
:102D9400740600207C0600207C06002084060020A7
:102DA400840600208C0600208C0600209406002057
:102DB400940600209C0600209C060020A406002007
:102DC400A4060020AC060020AC060020B4060020B7
:102DD400B4060020BC060020BC060020C406002067
:102DE400C4060020CC060020CC060020D406002017
:102DF400D4060020DC060020DC060020E4060020C7
:102E0400E4060020EC060020EC060020F406002076
:102E1400F4060020FC060020FC0600200407002025
:102E2400040700200C0700200C07002014070020D2
:102E3400140700201C0700201C0700202407002082
:102E4400240700202C0700202C0700203407002032
:102E5400340700203C0700203C07002044070020E2
:102E6400440700204C0700204C0700205407002092
:102E7400540700205C0700205C0700206407002042
:102E8400640700206C0700206C07002074070020F2
:102E9400740700207C0700207C07002084070020A2
:102EA400840700208C0700208C0700209407002052
:102EB400940700209C0700209C070020A407002002
:102EC400A4070020AC070020AC070020B4070020B2
:102ED400B4070020BC070020BC070020C407002062
:102EE400C4070020CC070020CC070020D407002012
:102EF400D4070020DC070020DC070020E4070020C2
:102F0400E4070020EC070020EC070020F407002071
:102F1400F4070020FC070020FC0700200408002020
:102F2400040800200C0800200C08002014080020CD
:102F3400140800201C0800201C080020240800207D
:102F4400240800202C0800202C080020340800202D
:102F5400340800203C0800203C080020FFFFFFFF4D
:042F64000000020067
:0400000508000BA53F
:00000001FF
