:020000040800F2
:100000000000022019180008D5140008D7140008B1
:10001000D9140008DB140008DD14000800000000FB
:10002000000000000000000000000000DF140008D5
:10003000E114000800000000E3140008E5140008C3
:10004000691800086918000869180008691800088C
:10005000691800086918000869180008691800087C
:10006000691800086918000869180008691800086C
:10007000691800086918000869180008691800085C
:10008000691800086918000869180008691800084C
:10009000691800086918000869180008691800083C
:1000A000691800086918000869180008691800082C
:1000B000691800086918000869180008691800081C
:1000C000691800086918000869180008691800080C
:1000D00069180008691800086918000869180008FC
:1000E00069180008691800086918000869180008EC
:1000F00069180008691800086918000869180008DC
:1001000069180008691800086918000869180008CB
:1001100069180008691800086918000869180008BB
:1001200069180008691800086918000869180008AB
:1001300069180008000000000000000069180008AD
:10014000691800086918000869180008691800088B
:10015000691800086918000869180008691800087B
:10016000691800086918000869180008691800086B
:1001700069180008691800086918000800000000E4
:1001800000000000691800080000000000000000E6
:10019000691800080000000000000000691800084D
:1001A00000000000000000000000000069180008C6
:1001B000691800086918000869180008691800081B
:0401C00069180008B2
:1002000010B5054C237833B9044B13B10448AFF350
:1002100000800123237010BDC009002000000000F1
:100220003C79000808B5034B1BB103490348AFF301
:10023000008008BD00000000C40900203C790008CF
:1002400090F800F06DE9024520F007016FF0000C16
:1002500010F0070491F820F040F049804FF00004BE
:100260006FF00700D1E9002391F840F000F1080099
:1002700082FA4CF2A4FA8CF283FA4CF3A2FA8CF3D1
:100280004BBBD1E9022382FA4CF200F10800A4FA38
:100290008CF283FA4CF3A2FA8CF3E3B9D1E904238C
:1002A00082FA4CF200F10800A4FA8CF283FA4CF3C3
:1002B000A2FA8CF37BB9D1E9062301F1200182FA7D
:1002C0004CF200F10800A4FA8CF283FA4CF3A2FA83
:1002D0008CF3002BC6D0002A04BF04301A4612BA91
:1002E000B2FA82F2FDE8024500EBD2007047D1E994
:1002F000002304F00305C4F100004FEAC50514F023
:10030000040F91F840F00CFA05F562EA05021CBFF3
:1003100063EA050362464FF00004A9E7000000000D
:1003200001F0FF01102A2BDB10F0070F08D010F8A6
:10033000013B013A8B422DD010F0070F42B3F6D1AA
:10034000F0B441EA012141EA014122F007047FF0C3
:1003500000070023F0E80256083C85EA010586EA1A
:10036000010685FA47F5A3FA87F586FA47F6A5FA56
:1003700087F68EB9EED1F0BC01F0FF0102F0070262
:1003800032B110F8013B013A83EA010313B1F8D10D
:100390000020704701387047002D06BF35460338EE
:1003A000073815F0010F07D1013015F4807F02BF27
:1003B000013015F4C03F0130F0BC0138704700BF78
:1003C000844641EA000313F003036DD1403A41D360
:1003D00051F8043B40F8043B51F8043B40F8043B1F
:1003E00051F8043B40F8043B51F8043B40F8043B0F
:1003F00051F8043B40F8043B51F8043B40F8043BFF
:1004000051F8043B40F8043B51F8043B40F8043BEE
:1004100051F8043B40F8043B51F8043B40F8043BDE
:1004200051F8043B40F8043B51F8043B40F8043BCE
:1004300051F8043B40F8043B51F8043B40F8043BBE
:1004400051F8043B40F8043B51F8043B40F8043BAE
:10045000403ABDD2303211D351F8043B40F8043B4E
:1004600051F8043B40F8043B51F8043B40F8043B8E
:1004700051F8043B40F8043B103AEDD20C3205D35E
:1004800051F8043B40F8043B043AF9D2043208D056
:10049000D2071CBF11F8013B00F8013B01D30B88C8
:1004A00003806046704700BF082A13D38B078DD0A6
:1004B00010F003038AD0C3F10403D21ADB071CBF78
:1004C00011F8013B00F8013B80D331F8023B20F8E2
:1004D000023B7BE7043AD9D3013A11F8013B00F81B
:1004E000013BF9D20B7803704B7843708B788370A3
:1004F0006046704781F0004102E000BF83F0004396
:1005000030B54FEA41044FEA430594EA050F08BFAE
:1005100090EA020F1FBF54EA000C55EA020C7FEA72
:10052000645C7FEA655C00F0E2804FEA5454D4EBEF
:100530005555B8BF6D420CDD2C4480EA020281EAB9
:10054000030382EA000083EA010180EA020281EAF1
:100550000303362D88BF30BD11F0004F4FEA013143
:100560004FF4801C4CEA113102D0404261EB410152
:1005700013F0004F4FEA03334CEA133302D05242D8
:1005800063EB430394EA050F00F0A780A4F1010494
:10059000D5F1200E0DDB02FA0EFC22FA05F28018CE
:1005A00041F1000103FA0EF2801843FA05F35941B4
:1005B0000EE0A5F120050EF1200E012A03FA0EFC33
:1005C00028BF4CF0020C43FA05F3C01851EBE3715D
:1005D00001F0004507D54FF0000EDCF1000C7EEB7A
:1005E00000006EEB0101B1F5801F1BD3B1F5001FB8
:1005F0000CD349085FEA30004FEA3C0C04F10104D7
:100600004FEA445212F5800F80F09A80BCF1004FFF
:1006100008BF5FEA500C50F1000041EB045141EA81
:10062000050130BD5FEA4C0C404141EB0101013C4A
:1006300028BFB1F5801FE9D291F0000F04BF014639
:100640000020B1FA81F308BF2033A3F10B03B3F10B
:1006500020020CDA0C3208DD02F1140CC2F10C029B
:1006600001FA0CF021FA02F10CE002F11402D8BFF9
:10067000C2F1200C01FA02F120FA0CFCDCBF41EAC5
:100680000C019040E41AA2BF01EB0451294330BD94
:100690006FEA04041F3C1CDA0C340EDC04F1140471
:1006A000C4F1200220FA04F001FA02F340EA030048
:1006B00021FA04F345EA030130BDC4F10C04C4F18E
:1006C000200220FA02F001FA04F340EA030029466E
:1006D00030BD21FA04F0294630BD94F0000F83F4B8
:1006E000801306BF81F480110134013D4EE77FEA9B
:1006F000645C18BF7FEA655C29D094EA050F08BFE7
:1007000090EA020F05D054EA000C04BF19461046C7
:1007100030BD91EA030F1EBF0021002030BD5FEA0B
:10072000545C05D14000494128BF41F0004130BD33
:1007300014F580043CBF01F5801130BD01F0004587
:1007400045F0FE4141F470014FF0000030BD7FEAFA
:10075000645C1ABF194610467FEA655C1CBF0B46F5
:10076000024650EA013406BF52EA033591EA030F0C
:1007700041F4002130BD00BF90F0000F04BF002104
:10078000704730B54FF4806404F132044FF0000537
:100790004FF0000150E700BF90F0000F04BF0021B0
:1007A000704730B54FF4806404F1320410F0004516
:1007B00048BF40424FF000013EE700BF42004FEA11
:1007C000E2014FEA31014FEA02701FBF12F07F438E
:1007D00093F07F4F81F06051704732F07F4208BF45
:1007E000704793F07F4F04BF41F40021704730B54C
:1007F0004FF4607401F0004521F000411CE700BF98
:1008000050EA010208BF704730B54FF000050AE01A
:1008100050EA010208BF704730B511F0004502D51B
:10082000404261EB41014FF4806404F132045FEA1D
:10083000915C3FF4D8AE4FF003025FEADC0C18BFC6
:1008400003325FEADC0C18BF033202EBDC02C2F1B8
:10085000200300FA03FC20FA02F001FA03FE40EA4A
:100860000E0021FA02F11444BDE600BF70B54FF04E
:10087000FF0C4CF4E06C1CEA11541DBF1CEA13552C
:1008800094EA0C0F95EA0C0F00F0DEF82C4481EA94
:10089000030621EA4C5123EA4C5350EA013518BFB4
:1008A00052EA033541F4801143F4801338D0A0FBA1
:1008B00002CE4FF00005E1FB02E506F00042E0FB4E
:1008C00003E54FF00006E1FB03569CF0000F18BF54
:1008D0004EF0010EA4F1FF04B6F5007F64F54074FC
:1008E00004D25FEA4E0E6D4146EB060642EAC6218F
:1008F00041EA55514FEAC52040EA5E504FEACE2EFC
:10090000B4F1FD0C88BFBCF5E06F1ED8BEF1004FFE
:1009100008BF5FEA500E50F1000041EB045170BD7A
:1009200006F0004646EA010140EA020081EA0301BE
:10093000B4EB5C04C2BFD4EB0C0541EA045170BDBA
:1009400041F480114FF0000E013C00F3AB8014F134
:10095000360FDEBF002001F0004170BDC4F100047D
:10096000203C35DA0C341BDC04F11404C4F12005FE
:1009700000FA05F320FA04F001FA05F240EA020059
:1009800001F0004221F0004110EBD37021FA04F68F
:1009900042EB06015EEA430E08BF20EAD37070BD49
:1009A000C4F10C04C4F1200500FA04F320FA05F0A8
:1009B00001FA04F240EA020001F0004110EBD370AA
:1009C00041F100015EEA430E08BF20EAD37070BD1A
:1009D000C4F1200500FA05F24EEA020E20FA04F3F3
:1009E00001FA05F243EA020321FA04F001F00041A2
:1009F00021FA04F220EA020000EBD3705EEA430E13
:100A000008BF20EAD37070BD94F0000F0FD101F041
:100A10000046400041EB010111F4801F08BF013C7A
:100A2000F7D041EA060195F0000F18BF704703F0B8
:100A30000046520043EB030313F4801F08BF013D3F
:100A4000F7D043EA0603704794EA0C0F0CEA1355FB
:100A500018BF95EA0C0F0CD050EA410618BF52EAB5
:100A60004306D1D181EA030101F000414FF00000BB
:100A700070BD50EA410606BF1046194652EA4306C9
:100A800019D094EA0C0F02D150EA013613D195EA3D
:100A90000C0F05D152EA03361CBF104619460AD185
:100AA00081EA030101F0004141F0FE4141F470018F
:100AB0004FF0000070BD41F0FE4141F4780170BD7F
:100AC00070B54FF0FF0C4CF4E06C1CEA11541DBFE4
:100AD0001CEA135594EA0C0F95EA0C0F00F0A7F8E6
:100AE000A4EB050481EA030E52EA03354FEA013113
:100AF00000F088804FEA03334FF0805545EA131326
:100B000043EA12634FEA022245EA111545EA1065ED
:100B10004FEA00260EF000419D4208BF964244F184
:100B2000FD0404F5407402D25B084FEA3202B61AA3
:100B300065EB03055B084FEA32024FF480104FF477
:100B4000002CB6EB020E75EB030E22BFB61A7546EB
:100B500040EA0C005B084FEA3202B6EB020E75EB7E
:100B6000030E22BFB61A754640EA5C005B084FEAE6
:100B70003202B6EB020E75EB030E22BFB61A7546B3
:100B800040EA9C005B084FEA3202B6EB020E75EBBE
:100B9000030E22BFB61A754640EADC0055EA060E7F
:100BA00018D04FEA051545EA16754FEA06164FEAC2
:100BB000C30343EA52734FEAC2025FEA1C1CC0D16E
:100BC00011F4801F0BD141EA00014FF000004FF0FB
:100BD000004CB6E711F4801F04BF01430020B4F1BC
:100BE000FD0C88BFBCF5E06F3FF6AFAEB5EB030C74
:100BF00004BFB6EB020C5FEA500C50F1000041EB71
:100C0000045170BD0EF0004E4EEA113114EB5C043D
:100C1000C2BFD4EB0C0541EA045170BD41F4801110
:100C20004FF0000E013C90E645EA060E8DE60CEA18
:100C3000135594EA0C0F08BF95EA0C0F3FF43BAF35
:100C400094EA0C0F0AD150EA01347FF434AF95EAEC
:100C50000C0F7FF425AF104619462CE795EA0C0FD0
:100C600006D152EA03353FF4FDAE1046194622E79D
:100C700050EA410618BF52EA43067FF4C5AE50EA77
:100C800041047FF40DAF52EA43057FF4EBAE12E767
:100C90004FF0FF3C06E000BF4FF0010C02E000BF48
:100CA0004FF0010C4DF804CD4FEA410C7FEA6C5C2B
:100CB0004FEA430C18BF7FEA6C5C1BD001B050EACE
:100CC000410C0CBF52EA430C91EA030F02BF90EAB9
:100CD000020F0020704710F1000F91EA030F58BF78
:100CE000994208BF90422CBFD8176FEAE37040F0DA
:100CF000010070474FEA410C7FEA6C5C02D150EA78
:100D0000013C07D14FEA430C7FEA6C5CD6D152EA32
:100D1000033CD3D05DF8040B704700BF84461046F7
:100D200062468C461946634600E000BF01B5FFF7F6
:100D3000B7FF002848BF10F1000F01BD4DF808EDC6
:100D4000FFF7F4FF0CBF012000205DF808FB00BF97
:100D50004DF808EDFFF7EAFF34BF012000205DF8F1
:100D600008FB00BF4DF808EDFFF7E0FF94BF01203E
:100D700000205DF808FB00BF4DF808EDFFF7CEFF3F
:100D800094BF012000205DF808FB00BF4DF808ED7E
:100D9000FFF7C4FF34BF012000205DF808FB00BF4F
:100DA0004FEA410C7FEA6C5C02D150EA013C0AD167
:100DB0004FEA430C7FEA6C5C02D152EA033C02D159
:100DC0004FF0000070474FF0010070474FEA4102BA
:100DD00012F5001215D211D56FF47873B3EB62528D
:100DE00012D94FEAC12343F0004343EA505311F0B4
:100DF000004F23FA02F018BF404270474FF0000046
:100E0000704750EA013005D111F0004008BF6FF083
:100E1000004070474FF00000704700BF53B94AB917
:100E2000002908BF00281CBF4FF0FF314FF0FF30F2
:100E300000F06CB9ADF1080C6DE904CE00F006F8D5
:100E4000DDF804E0DDE9022304B070472DE9F04746
:100E5000089E0D4604468E46002B40F082808A4252
:100E6000174646D9B2FA82F24AB1C2F1200105FA18
:100E700002F320FA01F1974041EA030E94404FEA51
:100E80001748230CBEFBF8FCB9B208FB1CEE43EA82
:100E90000E430CFB01F098420AD9FB180CF1FF3508
:100EA00080F01681984240F21381ACF1020C3B4471
:100EB0001B1AA4B2B3FBF8F008FB103344EA034456
:100EC00000FB01F1A14209D93C1900F1FF3380F088
:100ED0000181A14240F2FE8002383C44641A40EA9B
:100EE0000C4000211EB1D4400023C6E90043BDE8F8
:100EF000F08702B9FFDEB2FA82F2002A4FD1CB1B93
:100F00004FEA174E1FFA87F80121B3FBFEFC250CB0
:100F10000EFB1C3345EA034508FB0CF3AB4207D933
:100F20007D190CF1FF3002D2AB4200F2E78084461B
:100F3000ED1AA3B2B5FBFEF00EFB105543EA0544D3
:100F400008FB00F8A04507D93C1900F1FF3302D295
:100F5000A04500F2D7801846A4EB080440EA0C40F4
:100F6000C0E78B4208D9002E00F0AF800021C6E90F
:100F700000050846BDE8F087B3FA83F100294BD19C
:100F8000AB4202D3824200F2B780841A65EB0303BE
:100F900001209E46002EAAD0C6E9004EA7E7C2F166
:100FA000200C01FA02F3974020FA0CF04FEA174E9A
:100FB00021FA0CFC1843BCFBFEF1050C0EFB11CC16
:100FC0001FFA87F845EA0C4501FB08F3AB4204FA27
:100FD00002F409D97D1901F1FF3C80F08B80AB420E
:100FE00040F2888002393D44EB1A85B2B3FBFEF033
:100FF0000EFB103345EA034500FB08F3AB4207D96B
:101000007D1900F1FF3C71D2AB426FD902383D44EB
:10101000EB1A40EA014178E7C1F1200C8B4022FA3B
:101020000CF71F4320FA0CF405FA01F34FEA174EB0
:1010300025FA0CF51C43230CB5FBFEF91FFA87F8C3
:101040000EFB195543EA054509FB08FAAA4502FAC1
:1010500001F200FA01F308D97D1909F1FF3047D2F6
:10106000AA4545D9A9F102093D44A5EB0A05A4B258
:10107000B5FBFEF00EFB105544EA054400FB08F8F2
:10108000A04507D93C1900F1FF352DD2A0452BD939
:1010900002383C4440EA0940A4EB0804A0FB028962
:1010A0004C45C6464D4619D316D05EB1B3EB0E0281
:1010B00064EB050404FA0CFCCA404CEA0202CC4082
:1010C000C6E900240021BDE8F087314630460EE72E
:1010D000AC46EDE6184601E74345E6D2B8EB020E12
:1010E00069EB07050138E0E72846D3E760468FE75C
:1010F0008146BAE7614677E708464BE7ACF1020C58
:101100003D4415E702383C4426E700BF704700BF66
:1011100000230F2B41D8F0B425E08268164086608A
:1011200082684D79A5402A43826045689FB20126B6
:10113000BE4025EA0605456045688A79BA4092B204
:101140002A434260C2689DB26E000325B54022EA80
:101150000502C260C268CD7905FA04F41443C46084
:1011600001330F2B17D801229A400C68A243F7D104
:1011700005685C000322A240D64325EA0202026011
:1011800002680D79A5402A4302600A79013AD2B279
:10119000012AD7D8C1E7F0BC704770470183704778
:1011A0004183704730B401F007039B0002FA03F457
:1011B000C908083150F821200F2505FA03F322EA67
:1011C000030340F8213050F82120224340F8212029
:1011D00030BC704710B43E4B9B6803F00C030C2BE3
:1011E00072D8DFE803F00771717124717171277192
:1011F00071714C00374B0360354CA368C3F3031384
:101200003549CB5CDAB20368D3404360A268C2F3CD
:1012100082228A5CD2B223FA02F28260A268C2F30E
:1012200042328A5CD2B2D340C36010BC70472B4BB1
:101230000360E1E7264B5A685B6803F03F0312F452
:10124000800F12D0254AB2FBF3F2214B5B68C3F347
:10125000881303FB02F31E4A5268C2F301420132B3
:101260005200B3FBF2F30360C6E71A4AB2FBF3F293
:10127000174B5B68C3F3881303FB02F3EBE7144BD4
:101280005A685B6803F03F0312F4800F12D0134AD0
:10129000B2FBF3F20E4B5B68C3F3881303FB02F35C
:1012A0000B4A5268C2F3027201325200B3FBF2F3EE
:1012B0000360A1E7074AB2FBF3F2054B5B68C3F397
:1012C000881303FB02F3EBE7024B036094E700BFD4
:1012D000003802400024F4000000002000127A00D0
:1012E00021B1054A136B184310637047024A136B10
:1012F00023EA0000106370470038024021B1054A1C
:10130000136C184310647047024A136C23EA000000
:10131000106470470038024030B585B004460D4671
:10132000038A9BB223F44053CA8813430382838900
:101330009BB223F4B05323F00C03898828896A896F
:1013400001430A431343A381A38A9BB223F440734E
:10135000AA891343A3826846FFF73CFF204B9C42B7
:1013600005D003F580639C4201D0029B00E0039B03
:10137000A28912F4004F1FD103EB830303EB830315
:1013800029688900B3FBF1F1164BA3FB012358092F
:101390000501642300FB1313A28912F4004F14D13A
:1013A0001B0132330F4AA2FB0323C3F343132B4326
:1013B0009BB2238105B030BD03EB830303EB8303B2
:1013C00029684900B3FBF1F1DEE7DA003232054B60
:1013D000A3FB0232C2F3421242EA0503E8E700BF70
:1013E000001001401F85EB5129B183899BB243F462
:1013F00000538381704783899BB223F400539BB2CF
:1014000083817047C1F30801818070478088C0F3F1
:10141000080070470388194201D00120704700205E
:101420007047000000B583B001210846FFF758FF60
:101430002023009301238DF8043000238DF806301B
:101440008DF8073002238DF8053069460248FFF712
:101450005FFE03B05DF804FB0000024000000000E6
:1014600038B5FFF7DFFF00F037F900F061F91448F5
:1014700000F0D8FA10A5D5E9004522462B461148C0
:1014800000F06EFA22462B460F4800F069FA0F482A
:1014900000F0C8FA0E4C20212046FFF77FFE4FF4E3
:1014A0007A7000F037F920212046FFF779FE4FF4DB
:1014B0007A7000F02FF9EDE71F85EB51B81E094057
:1014C000587900086C790008747900087C79000864
:1014D000000002407047FEE7FEE7FEE7FEE77047C8
:1014E00070477047034B1B681BB1024A1368013BEE
:1014F00013607047E00900200120704708B500F034
:10150000B5F9162303604FF0FF3008BD08B54FF062
:10151000FF31FFF7F3FFFEE770B50C4616460025D6
:10152000B54207DA00F06AF9214601F8010B0135EE
:101530000C46F5E7304670BD70B50C4616460025E2
:10154000B54205DA14F8010B00F048F90135F7E768
:10155000304670BD08B503460B4A126842B10A4ACC
:10156000106803446A46934206D8074A136008BDD0
:10157000054A06491160F2E700F078F90C23036090
:101580004FF0FF30F3E700BFDC090020400A0020E5
:101590004FF0FF3070474FF400534B60002070470E
:1015A000012070470020704782B000230193009310
:1015B000344A136843F480331360324B1B6803F4DE
:1015C00000330093019B01330193009B1BB9019BE6
:1015D000B3F5A04FF1D12B4B1B6813F4003F06D09D
:1015E00001230093009B012B04D002B0704700231D
:1015F0000093F7E7234B1A6C42F080521A64224999
:101600000A6842F440420A609A689A609A6842F412
:1016100000429A609A6842F4A0529A601B4A5A604B
:101620001A6842F080721A60164B1B6813F0007F34
:10163000FAD0154A136843F480331360124B5B6889
:1016400013F4803FFAD0104A136843F40033136058
:101650000D4B5B6813F4003FFAD00D4B40F205725E
:101660001A60A3F580639A6822F003029A609A6870
:1016700042F002029A60034B9B6803F00C03082BB4
:10168000F9D1B2E70038024000700040085A4077B4
:10169000003C024008B50D4B1A6842F001021A6086
:1016A000002199601A6822F0847222F480321A6054
:1016B000074A5A601A6822F480221A60D960FFF73C
:1016C00073FF044B4FF000629A6008BD003802407F
:1016D0001030002400ED00E00A4B1B680A4AA2FB10
:1016E00003239B09013BB3F1807F0AD2074A536071
:1016F000074BF02183F82310002393600723136026
:101700007047FEE710000020D34D621010E000E0AB
:1017100000ED00E082B00190019A044B1A60034B87
:101720001B68002BFBD102B0704700BFE00900200E
:10173000F0B587B0264B186800230222194680684E
:1017400000F078F901210846FFF7CAFD01214FF4A6
:101750000030FFF7D3FD00248DF8164001278DF8E7
:10176000177002268DF815608DF814600423049319
:10177000184D04A92846FFF7CBFC8DF81460082308
:10178000049304A92846FFF7C3FC072231462846E4
:10179000FFF708FD072203212846FFF703FD4FF45A
:1017A000E1330093ADF80440ADF80640ADF80840D1
:1017B000ADF80C400C23ADF80A30074C69462046C2
:1017C000FFF7AAFD39462046FFF70EFE07B0F0BD31
:1017D00014000020000002400044004010B5044600
:1017E000C1B20548FFF70EFE40210348FFF712FE85
:1017F0000028F9D0204610BD0044004008B5202143
:101800000448FFF707FE0028F9D00248FFF7FEFD65
:1018100008BD00BF00440040DFF834D0002103E0E1
:101820000C4B5B58435004310B480C4B42189A4206
:10183000F6D30B4A02E0002342F8043B094B9A42DC
:10184000F9D3FFF727FF00F017F8FFF709FE7047FD
:1018500000000220A47D000800000020C009002034
:10186000C0090020400A0020FEE70000014B186874
:10187000704700BF1400002070B50D4E0D4D761B53
:10188000B61006D0002455F8043B01349847A64210
:10189000F9D1094E094D761B06F050F8B61006D066
:1018A000002455F8043B01349847A642F9D170BD95
:1018B000987D0008987D0008A07D0008987D0008AC
:1018C000F0B4860746D0541E002A3CD0CAB2034664
:1018D00001E0013C37D303F8012B9D07F9D1032C1C
:1018E0002AD9CDB245EA05250F2C45EA054534D95C
:1018F000A4F1100222F00F0C03F12007160967442F
:1019000003F1100242E9045542E902551032BA428D
:10191000F8D1721C14F00C0F03EB021204F00F0646
:1019200013D0331F23F003030433134442F8045B42
:101930009342FBD106F003042CB1CAB21C4403F855
:10194000012B9C42FBD1F0BC704734461346002C5F
:10195000F3D1F8E714460346C1E71A462646E0E706
:101960000FB400B5074983B004AB086853F8042BE3
:101970008168019300F02EF903B05DF804EB04B028
:10198000704700BF1400002070B5054688B00846B7
:101990000C46FEF755FC224AAB6B04940126441C0E
:1019A00004A9069202220394CDE90112AC680590C5
:1019B000079623B3636E13F0010FB4F90C309AB29B
:1019C00001D1980525D5910406D4626E43F40053E5
:1019D00022F40052A3816266284601AA214603F040
:1019E00001FA636E002814BF4FF0FF350A25DA07AD
:1019F00002D4A3899B0506D5284608B070BD2846A9
:101A000003F050F8D6E7A06D03F08AFB284608B033
:101A100070BDA06D03F082FBB4F90C309AB2D2E72E
:101A200098790008024B01461868FFF7ADBF00BF68
:101A3000140000202DE9F043654CD4F8009083B0E9
:101A400004460F4690461E46B9F1000F03D0D9F860
:101A50003830002B79D0B8F1020F06D0B8F1010F61
:101A600000F2A480002EC0F2A180636ED90752D587
:101A70002146484602F0BAFF216B41B104F1400310
:101A8000994202D0484603F0A9F800232363B4F931
:101A90000C500023A36163602B0665D425F44A65CE
:101AA00025F00305B8F1020FA58164D001AB6A46A9
:101AB0002146484603F036FBA3891843A081002E37
:101AC00030D0002F2FD0D9F83830002B39D0009BE0
:101AD0002760B342B4F90C301CBF43F40063A38108
:101AE000B8F1010F04BF43F00103A3819AB213F0D0
:101AF0000803C4E904762CD0D10755D57642A661F7
:101B0000666E002116F00106A16027D0002630463F
:101B100003B0BDE8F083A3899A05A9D4A06D03F0B2
:101B2000FDFAA5E7009E304603F076FB0746002845
:101B30003FD0A38943F08003A381D9F83830002B2C
:101B4000C5D1484602F0AEFFC1E7484602F0AAFF01
:101B500081E7A360666E16F00106D7D193051CD508
:101B6000304603B0BDE8F0832169484603F036F8FB
:101B7000B4F90C5092E70026626E002104F1430391
:101B800045F00205A160D7074FF00101C4E9043117
:101B9000A5812360E4D4A805E2D4A06D03F0C0FAC7
:101BA000304603B0BDE8F083A660D3E74FF0FF36C0
:101BB000D6E7009DB54204D0284603F02DFB07462A
:101BC00020B9B4F90C504FF0FF36D5E72E46B0E7F8
:101BD000140000202DE9F04FD5B01C468B46174667
:101BE000814603F093FA03680D9418461693FEF7A6
:101BF00027FB1590B9F1000F04D0D9F83830002B2D
:101C000000F0FD81DBF8643013F0010FBBF90C30FC
:101C10009AB202D19E0540F1B48695040AD4DBF84D
:101C2000642043F4005322F40051ABF80C309AB214
:101C3000CBF86410100740F1CA80DBF81030002B9D
:101C400000F0C58002F01A030A2B00F0CE800023BA
:101C5000CDE92933CDE91833CDE91A331193179320
:101C600008932BAB289398463B78CDF82CB00021F5
:101C70000022CDE91212002B00F071813C4604E0F5
:101C800014F8013F002B00F0C780252BF8D1E51B8D
:101C900040F0C5802378002B00F061810023099378
:101CA0008DF883300693661C4FF0FF3364780793FA
:101CB0002B254FF0200A0136A4F120035A2B00F205
:101CC000CC80DFE813F06B02CA00CA006502CA00CC
:101CD000CA00CA006A00CA00CA0003021402CA008D
:101CE0000E024B02CA0045025B005B005B005B001A
:101CF0005B005B005B005B005B00CA00CA00CA00BF
:101D0000CA00CA00CA00CA005501CA00A60183025F
:101D1000550155015501CA00CA00CA00CA007D021A
:101D2000CA00CA00DB02CA00CA00CA00B401CA0065
:101D30001802CA00CA000408CA00CA00CA00CA00C1
:101D4000CA00CA00CA00CA005501CA00A601DA01C9
:101D5000550155015501F002DA01A001CA007402D3
:101D6000CA000D030108F902A001CA00B4018200F3
:101D7000FD07CA00CA00D507CA008200A4F13003DB
:101D8000002216F8014B02EB820203EB4202A4F19F
:101D90003003092BF5D909928EE7484603F0B6F9CE
:101DA00043681A931846FEF74BFA034648461C460A
:101DB0001B9303F0ABF98268189234B1189B23B1DE
:101DC000189B1B78002B41F0BA80347873E7594692
:101DD000484601F003FD002841F04983BBF80C2080
:101DE00002F01A030A2B7FF432AFBBF90E30002B3E
:101DF000FFF62DAFDBF86430DB0702D4960541F126
:101E00006C8123463A465946484601F0A5FC0890A5
:101E1000089855B0BDE8F08FE51B00F0A080DDE923
:101E2000293201332A44072BCDE92932C8F8007042
:101E3000C8F8045006DC08F10808089A23782A44F8
:101E4000089228E70B9928AA484604F089FB002845
:101E500041F025840DF1AC08EFE70E96002C7ED002
:101E600000231A464FF0010A8DF8EC408DF88330BC
:101E70000C9207920F9214921092CDF828A03BAFCB
:101E8000069B069913F0020318BF0AF1020A11F02B
:101E9000840B05D10999A1EB0A06002E00F3DA8321
:101EA0002A9D72B1299A013201350DF18300012179
:101EB000072ACDE92925C8E9000100F30C8408F1BF
:101EC00008086BB1299B0133023521A90222072B97
:101ED000CDE92935C8E9001200F30C8408F108089F
:101EE000BBF1800F00F08F82079B0A9A9E1A002E8A
:101EF00000F3CE82069BDE0500F12982299B0A9A17
:101F0000C8F8007001331544072B2A95C8F804203F
:101F1000299300F3338308F10808069B5E0705D573
:101F2000099BA3EB0A04002C00F3F183DDE90832DE
:101F30005245ACBF9B1853440893002D40F0E182FA
:101F4000002329930C9B1BB10C99484602F046FED6
:101F50000DF1AC080E9F3B78002B7FF48FAE2A9BCF
:101F6000DDF82CB0002B40F0E08700232993D7E266
:101F70000D9B0E96073323F007031946F1E8022361
:101F8000CDE91223DDE912AB2BF000450D91B84BE2
:101F9000504629464FF0FF32FEF702FF002840F07E
:101FA0004E85B34B504629464FF0FF32FEF7DAFE1E
:101FB000002840F044850022002350465946FEF791
:101FC000C7FE002841F084819DF88320A94FAA4BC9
:101FD000069800214FF0030A20F080000C91069033
:101FE000472CC8BF1F46CDF828A007910F91149128
:101FF0001091002A3FF444AF0AF1010A40E7484635
:1020000002F050FDFEE5069B347843F02003069372
:1020100051E60D9B0E9653F8042B8DF8EC20002111
:102020000A464FF0010A0D938DF8831020E70D9DAD
:102030000E9655F8047B00268DF88360002F00F083
:102040007286079A1346013300F01B8731463846E3
:10205000FEF766F90C90002801F0C3810C9B0796EF
:10206000DA1B0A92334622EAE27A0D959DF8832024
:102070000C930F9314931093BBE7069B0E969D064B
:1020800040F1AD800D9B073323F007031946F1E8BB
:1020900002230D9192469B46002A73F10003C0F281
:1020A000AF80079B013300F09D85069B23F08005E0
:1020B0005AEA0B0340F0BD82079B002B40F0C08220
:1020C0000695002307930A9354AFC3E00D9B53F882
:1020D000042B0992002A80F25D84099A0D935242E2
:1020E0000992069B347843F004030693E3E53478C1
:1020F0008DF88350DFE5069B0E9643F01005AF0682
:1021000040F11A840D9B073323F00703F3E802AB79
:102110000D93012300228DF88320079A1146013187
:102120007DD025F0800106915AEA0B0140F07D82B6
:10213000002A40F07486002BC3D115F001030A93E6
:1021400000F05B8430238DF84F310DF24F1781E0A2
:10215000069B347843F080030693ACE5324612F8D0
:10216000014B2A2C01F0D382A4F13003092B16462F
:1021700098BF002201F2738116F8014B02EB820234
:1021800003EB4202A4F13003092BF5D9079293E542
:10219000069B347843F0010306938CE59DF8833069
:1021A000002B7FF412AE34788DF883A083E5347869
:1021B000069B6C2C00F0B08543F0100306937AE583
:1021C000069B347843F00803069374E5069B0E964D
:1021D00043F010030693069B9D063FF553AF069B05
:1021E000D80640F11C840D9B53F8042B0D934FEA45
:1021F000E27B5B46002A73F100039246BFF651AFC3
:10220000079A069DDAF1000A11464FF02D036BEB99
:102210004B0B01318DF883304FF0010381D1012B3D
:1022200000F00782022B54AF72D117984FEA1A13AD
:102230000AF00F0143EA0B734FEA1B129A469346CA
:10224000435C07F8013D5AEA0B03EFD154ABDB1BAB
:1022500006950A93002307990C930F9314931093F8
:102260000A9B9DF883208B42B8BF0B469A46C0E676
:10227000FFFFEF7F9C790008A0790008069B0E966F
:1022800043F010030693069B990640F165830D9B6E
:10229000073323F00703F3E802AB0D93069B23F407
:1022A0008065002336E73478069B682C00F02D8586
:1022B00043F040030693FEE40D9B0E9647F6300173
:1022C00053F8042BADF8841006990D93B14B179376
:1022D00041F0020592464FF0000B0223782419E7E3
:1022E000069B0E969E0600F17184069BDD0600F1AA
:1022F0009B85069B5C0600F13886069B980540F19D
:1023000093850D9B089953F8042B0D93117021E6CA
:102310004FEADA0242EA4B724FEADB010AF00703A6
:102320008B46924630335AEA0B013A4607F8013D94
:10233000EED1E9078AD5302B88D03023023A07F84E
:10234000013C54AB9B1A06950A93174682E7652C0D
:1023500040F32681DDE9120100220023FEF7EEFCA6
:10236000002800F00E82299B8B4AC8F80020013318
:1023700001350122072BCDE92935C8F8042000F3E7
:10238000308508F10808229B119A934280F2F4826A
:10239000299B169AC8F80020159AC8F80420013322
:1023A0001544072B2A95299300F3A28408F1080805
:1023B000119B5C1E002C7FF7B0AD102C299BDFF821
:1023C000DCB140F31F855F461026DDF82CB005E038
:1023D00008F10808103C102C40F313850133103528
:1023E000072BCDE92935C8E90076F1DD28AA594641
:1023F000484604F0B5F8002840F08D80DDE9293525
:102400000DF1AC08E6E7099BA3EB0A06002E7FF767
:102410006BAD102E299ADFF884B126DD29461023F2
:1024200025465C46DDF82CB004E0103E102E08F185
:10243000080817DD01321031072ACDE92921C8E942
:102440000043F2DD28AA5946484604F089F80028DE
:1024500061D1103E102EDDE929210DF1AC084FF0BD
:102460001003E7DCA3462C460D4601323544072A0B
:10247000CDE92925C8F800B0C8F8046000F32B8422
:10248000079B0A9A9E1A002E08F108087FF732ADC2
:10249000102E299ADFF804B125DD294610232546A0
:1024A0005C46DDF82CB004E0103E102E08F1080860
:1024B00016DD01321031072ACDE92921C8E9004390
:1024C000F2DD28AA5946484604F04AF818BB103EE7
:1024D000102EDDE929210DF1AC084FF01003E8DCE6
:1024E000A3462C460D4601323544072ACDE929255D
:1024F000C8F800B0C8F8046000F3118208F10808B9
:10250000F8E40B9928AA484604F02AF800283FF47A
:1025100017ADDDF82CB00C9911B1484602F05EFB06
:10252000DBF8643013F0010FBBF80C3002D19C05CE
:1025300040F12E84580600F1A687089855B0BDE8F2
:10254000F08F299B1699C8F800101599C8F8041047
:1025500001330D44072B2A95299300F3AF8508F129
:102560000808002AC0F29E87119A01331544072BF0
:10257000CDE92935C8E900727FF7CDAC0B9928AABF
:10258000484603F0EDFF0028C3D12A9D0DF1AC08A9
:10259000C3E400BFAC790008DC790008F0790008DA
:1025A000119B299C012B40F37281013401350123D9
:1025B000072CCDE92945C8F80070C8F8043000F3AD
:1025C000CD8308F10808159B169A01341D44072C89
:1025D000CDE92945C8E9002300F3CD8308F10808B7
:1025E0000023DDE912010022FEF7A8FB119B002861
:1025F00040F06A81013B013401371D44072CCDE9CD
:102600002945C8F80070C8F8043000F3508108F17B
:102610000808199A0134154424AB072CCDE9294543
:10262000C8E900327FF777ACA8E7012B069D7FF45D
:10263000F9ADBBF1000F08BFBAF10A0F80F0DA82E2
:102640000AF1300A01238DF84FA106950A930DF285
:102650004F17FFE5102EDDE929212ADD1C933B46AB
:1026600040464F46A04610250B9C994604E0103E7C
:10267000102E00F1080016DD0132C84B1031072A78
:10268000CDE92921C0E90035F1DD28AA21463846E7
:1026900003F066FF002840F09483103E102EDDE921
:1026A00029212BA8E8DC44461C9B80464846B946B5
:1026B00007460132B948C8F800007518072ACDE965
:1026C0002925C8F8046000F36B839DF8832008F186
:1026D0000808FFF7E6BB0B991C9328AA484603F0AD
:1026E0003FFF00287FF415AF2A9D1C9B0DF1AC081D
:1026F000FFF7E7BB0B9928AA484603F031FF0028F3
:102700007FF407AF2A9D0DF1AC08FFF7E9BB102C51
:10271000299B1FDD0B9F102604E0103C102C08F1B4
:10272000080817DD01339D4A1035072BCDE92935FF
:10273000C8E90026F1DD28AA3946484603F010FF13
:10274000002840F05B83103C102CDDE929350DF1A9
:10275000AC08E7DC0133914AC8F800202544072B78
:10276000CDE92935C8F804407FF7E0AB0B9928AADA
:10277000484603F0F5FE00287FF4CBAE2A9DFFF714
:10278000D5BB229A002A40F30D81DDE91032934235
:10279000A8BF1346002B1C460DDD299BC8F800700E
:1027A00001332544072B2A95C8F80440299300F3E8
:1027B000B48508F10808109B002CA8BF1B1B002B38
:1027C0001C4600F33983109B3B449B46069B5905EE
:1027D00000F1E284229B119A934203DB069AD2070E
:1027E00040F1B483299A1699C8F800101599C8F8D1
:1027F000041001320D44072A2A95299200F3C3855B
:1028000008F10808119ABC18A4EB0B04D31A9C42D7
:10281000A8BF1C46002C0DDD299AC8F800B0013273
:102820002544072A2A95C8F80440299200F3078610
:1028300008F10808002CACBF1C1B1C46002C7FF7BD
:102840006CAB102C299BDFF858B140F3DB825F465C
:102850001026DDF82CB005E008F10808103C102C1B
:1028600040F3CF8201331035072BCDE92935C8E974
:102870000076F1DD28AA5946484603F071FE00288B
:102880007FF449AEDDE929350DF1AC08E6E7069B9A
:10289000DB073FF58AAE013401350123072CCDE972
:1028A0002945C8F80070C8F804307FF7B0AE0B991E
:1028B00028AA484603F054FE00287FF42AAEDDE93A
:1028C00029450DF1AC08A4E65E1E002E7FF7A1AEEF
:1028D000102EDFF8CCB040F3E082CDF81CA010271A
:1028E000CA46DDF82C9005E008F10808103E102ECD
:1028F00040F3D08201341035072CCDE92945C8E9D1
:1029000000B7F1DD28AA4946504603F029FE002809
:1029100040F0A985DDE929450DF1AC08E6E70B9902
:1029200028AA484603F01CFE00287FF4F2AD2A9D39
:102930000DF1AC08FFF7DEBA0D9AEE0652F8041B53
:102940000D924FF001035DD4680658D51FFA81FA45
:102950004FF0000BFFF7DEBB069BDA0657D4069B51
:102960005B0640F1B2820D9B53F8042B0D931FFAC6
:1029700082FA4FF0000B91E4069BD8077FF5CDAAB1
:1029800006E5DBF8580002F0C9FBBBF90C309AB23F
:10299000FFF743B934780D93FFF78DB9E07900085C
:1029A000F0790008299BC349C8F8001001330135AC
:1029B0000121072BCDE92935C8F8041000F39684CE
:1029C00008F10808002A7FF4BCAD069B119A03F0B9
:1029D000010313433FF4A1AA299B169AC8F80020CB
:1029E000159AC8F8042001331544072B2A9529931A
:1029F00000F3648308F10808B6E554AF2AE4AA0599
:102A000000F1AD828A464FF0000BFFF783BB0D9BB0
:102A100053F8042B0D9392464FF0000B3EE4069BB7
:102A2000590640F161820D9B53F8042B0D930FFA68
:102A300082FA4FEAEA7B52465B46FFF72DBBDDE99F
:102A400012010B460246FEF7ABF90146002840F0A2
:102A50001686612C00F08A85412C00F09582079B38
:102A600024F020065A1C0A9600F0AA85472E00F092
:102A70008285DDE91212069BB2F1000A43F48073ED
:102A800010934FF00003C0F2CA851C930C938B4641
:102A9000462E5A46534600F08484452E40F0578413
:102AA000079926A84D1C23A90490039122A802216E
:102AB000019502900091484600F096FF07460544B4
:102AC000069B0F93109B0693584651460022002305
:102AD000FEF734F9002800F041832B46DB1B1193ED
:102AE0000A9B472B00F00C830A9B462B00F0868440
:102AF000229B1093109B0A9A013B412A229300F0DB
:102B00008885E2B20021002BB8BF109B8DF8902081
:102B1000BABFC3F101032D222B22092B8DF891207E
:102B200040F368850DF19F0EDFF890C175468CFB70
:102B30000321DA17C2EBA10202EB8201A3EB4101F0
:102B40001E463031632E284605F8011C134605F158
:102B5000FF35ECDC3033DAB2831E9E45294605F89A
:102B6000012C40F2DF850DF1920301E011F8012BF9
:102B700003F8012B8E45F9D10DF1A1030DF192025D
:102B80001B1A134424AA9B1A1993119B199A012BFF
:102B90001A440A9240F395850A9B159A13440A93A6
:102BA0000F9B23F4806600230F93149310930A9BCA
:102BB00046F48072069223EAE37A1C9B002B40F0D5
:102BC000C6829DF883200793FFF713BA0D9B53F835
:102BD000041B0D93089BDD171A462B46C1E9002301
:102BE000FFF7B8B9BBF1000F08BFBAF10A0F069D95
:102BF000FFF426AD05F4806600230694CDF82890F6
:102C00003446C14654AFA8461E46189D09E0FEF75B
:102C100005F9BBF1000F08BFBAF10A0F1FD38246B6
:102C20008B460A22002350465946FEF7F7F8944691
:102C30000CF1300C07F801CC504659460A2200230B
:102C40000136013F002CE2D095F800C06645DED188
:102C5000FF2EDCD09B4508BF924580F08B821895F3
:102C6000069C11964546C846DDF82890FFF7EEBA57
:102C7000114B0E961793069B9F0664D50D9B073349
:102C800023F00703F3E802AB0D93069AD0070AD5A9
:102C90005AEA0B0307D0302342F002028DF8854038
:102CA00006928DF88430069B23F480650223FFF79B
:102CB00031BA00BFDC790008AC7900086766666647
:102CC000069D0E96FFF71BBA0E96FFF7DCBAAB4BCC
:102CD0000E961793CFE70B9928AA484603F040FCBD
:102CE00000287FF416AC2A9D0DF1AC08FFF7FCB864
:102CF0000B9928AA484603F033FC00287FF409AC5E
:102D00002A9D0DF1AC08FFF753BB43F400737478B0
:102D100006930136FEF7CFBF43F020037478069385
:102D20000136FEF7C8BF079B0F97062B28BF062367
:102D30000797149710970C973A469A46904F0D951F
:102D40000A93FFF756B9069BDE063ED50D9B53F856
:102D5000042B0D9392464FF0000B96E70B9928AA8F
:102D6000484603F0FDFB00287FF4D3ABDDE929459D
:102D70000DF1AC0827E40B9928AA484603F0F0FBB4
:102D800000287FF4C6ABDDE929450DF1AC0827E446
:102D9000DBF8580002F0C4F9BBF80C30FFF7CABBEF
:102DA0000B991C9328AA484603F0DAFB00287FF40D
:102DB000B0AB9DF883202A9D1C9B0DF1AC08FFF75A
:102DC00070B8B946A346FFF7A6BB069B5D066ED555
:102DD0000D9B53F8042B0D931FFA82FA4FF0000B52
:102DE00053E70B9928AA484603F0BAFB00287FF462
:102DF00090AB2A9D0DF1AC08FFF7C5BABB46FFF7B3
:102E00008ABBBB4601332544072BC8F800B0CDE987
:102E10002935C8F804407FF77EA8FFF7AFBB012B28
:102E2000069D7FF4FFA90BE40D9B089953F8042B32
:102E300011600D93FFF78EB8102C299BDFF844B179
:102E400065DD2A4610265D46DDF82CB004E008F169
:102E50000808103C102C58DD01331032072BCDE947
:102E60002932C8E90056F2DD28AA5946484603F03F
:102E700077FB00287FF44FABDDE929320DF1AC0878
:102E8000E7E73846FDF7DCF93346079602460A9035
:102E9000FFF7E9B8D146DDF81CA001343544072C12
:102EA000CDE92945C8E900B67FF7B1ABFFE4069B41
:102EB00013F4007F0D9B53F8042B0D9314BF5FFA9E
:102EC00082FA92464FF0000BDFE6069B13F4007F78
:102ED0000D9B53F8042B0D9314BF5FFA82FA9246B0
:102EE0004FF0000BFFF7DAB9069B13F4007F0D9B40
:102EF00053F8042B3FF47AA94FFA82FA4FEAEA7B9F
:102F00000D9352465B46FFF7C7B8AB4615460133F3
:102F10002544072BCDE92935C8F800B0C8F804408E
:102F200000F3E18008F108084DE4484628AA594614
:102F300003F016FB00283FF418A8FFF7F1BA069B30
:102F4000347843F480630693FEF7B5BE119ABC183B
:102F5000A4EB0B04D31A9C42A8BF1C466AE45FFA98
:102F600081FA4FF0000BFFF7D5B80D9B089953F885
:102F7000042B0D931180FEF7EDBF00BFC079000850
:102F8000D4790008F079000830238DF88430582374
:102F90008DF88530069B43F00205079B632B00F3F9
:102FA000BF8200230C933BAFDDE91212069B06950E
:102FB00043F4817324F02006B2F1000A10930A96BC
:102FC000C0F2A38100238B461C93612C00F0FC828D
:102FD000412C7FF45DAD5846514622AA03F0C0F95A
:102FE00000224FF07F53FDF741FC00220023824670
:102FF0008B46FDF7A3FE08B101232293B74B0F9335
:10300000079B1D94CDE91E973E465D1E0F9FCDF890
:10301000508003E0FDF792FE013D08BBB04B00225B
:1030200050465946FDF722FC89468046FDF7CEFE04
:103030000446FDF7B1FB02460B4640464946FDF704
:103040005DFA17F804C0B5F1FF3FB046824606F8B6
:1030500001CB8B464FF000024FF00003A946D9D1B7
:10306000A04BCDF84480002250465946DDF85080F0
:103070001F9F14944D46DDE91D49FDF787FE00288A
:1030800040F05882974B504659460022FDF756FEB5
:1030900018B1149BDB0700F14D82002D2B4606DB97
:1030A00001333344302206F8012BB342FBD1069B97
:1030B0000F93F31B1193109B069311E50B9928AA0C
:1030C000484603F04DFA00287FF423AADDE92935AC
:1030D000229A0DF1AC08FFF744BADBF8580002F071
:1030E0001FF8FEF78EBE0B9928AA484603F038FA5F
:1030F00000287FF40EAA2A9D0DF1AC08FFF763BBF0
:10310000229B1093D81C02DB079A934204DD023CF9
:1031100024F020030A93EDE4DDE910318B42C0F284
:1031200084810F9AD20740F1B782159A13440A930B
:103130000F9B5B0503D5109B002B00F372820A9B4B
:10314000672423EAE37A00230F93149335E52D22B5
:1031500000238DF883200793FEF74EBF269BAB42DA
:10316000BFF4BCAC30215A1C26921970269B9D429C
:10317000F9D8B3E41B9B1A99FF1A1A46384603F094
:103180007FF96B7803B101350A2200235046594676
:103190000026FDF743FE42E5119BCDF828A04246EC
:1031A000DDF850801097FB1807935E46DDF86CA0A1
:1031B000DDF82CB0189F0F9B2946B8F1000F2ED0D8
:1031C000002B6AD1013F08F1FF38299B1A98106043
:1031D00001335144072B2A91C2F804A0299360DCE3
:1031E000083207983B78841B9C42A8BF1C46002CE1
:1031F0000ADD299B166001332144072B2A91546074
:10320000299359DC3B780832002CACBF1C1B1C46B0
:10321000002C14DC1E440F9BB8F1000FD0D1002B02
:103220003BD11897DDE91073FB189E42B346DDF8D9
:1032300028A090460D4628BF9B46FFF7CBBA102C1E
:1032400029981DDD102504E0103C102C02F1080225
:1032500016DD0130244B10310728CDE92901C2E9E0
:103260000035F1DD28AA5946484603F079F90028CF
:103270007FF451A9103C102CDDE929012BAAE8DCD0
:103280000130194B136021440728CDE9290154600E
:1032900050DC3B7808321E44BDE70F9B013B0F9387
:1032A00093E728AA5946484603F05AF900287FF4C4
:1032B00032A92A992BAA94E728AA5946484603F02E
:1032C0004FF900287FF427A93B782A992BAA9BE77E
:1032D0002D228DF88320FEF779BE00BFC07900084B
:1032E000000030400000E03FF07900080B9928AA68
:1032F000484603F035F900287FF40BA9229A2A9D4D
:103300000DF1AC08FFF75EBB0C90DDE9122303F171
:10331000004A2D2393461C9357E60B9928AA48464A
:1033200003F01EF900287FF4F4A82A9D0DF1AC08E3
:10333000FFF741BA28AA5946484603F011F9002878
:103340007FF4E9A83B782A992BAA1E4463E726A8B4
:1033500023A9079D0490039122A8022102900195C0
:103360000091484600F040FB472E074627D1069BB8
:10337000DA0700F18D80109A069247220F930A9285
:10338000269BFFF7ABBB0B9928AA484603F0E8F849
:1033900000287FF4BEA8229B2A9D0DF1AC08FFF700
:1033A00031BA26A823A9079D0490039122A80321DE
:1033B000029001950091484600F016FB0746079BD6
:1033C000462E07EB03057FF47BAB3B78302B00F0F8
:1033D0006A81229B069A0F921D44109B0693FFF769
:1033E00073BBDDF81CA09DF88320CDF828A00790C2
:1033F0000D950F9014901090FEF7FBBD229A0F9B35
:103400001092002A40F36E81079903F001030B43E9
:1034100040F02E81109B0A9366240F9B590500F102
:1034200001810A9B23EAE37A8DE6119B159A9A188B
:10343000109B0A92002B40F34A816724EDE70B9919
:1034400028AA484603F08CF800287FF462A8229B43
:10345000119A2A9DD31A0DF1AC08FFF7EBB900239E
:103460000793FEF729BCCB46D146FFF754B8DBF8EB
:103470006430D90707D4BBF80C309A0503D4DBF8C5
:10348000580001F04DFE4FF0FF330893FFF755B899
:10349000069B0F93079BFD18109B069347230A93E7
:1034A000FFF712BB54421032DFF8A8B221DA2A46E5
:1034B00010265D46DDF82CB004E008F10808103C49
:1034C000102C14DD01331032072BCDE92932C8E965
:1034D0000056F2DD28AA5946484603F041F8002874
:1034E0007FF419A8DDE929320DF1AC08E7E7AB4616
:1034F000154601332544072BCDE92935C8E900B429
:103500007FF778AA0B9928AA484603F029F80028E3
:103510007EF4FFAFDDE929350DF1AC08FFF724B8E3
:10352000591C484601F080FE0746002800F0FE8046
:103530000C9039E5119B26930F9B16F8012CD97B33
:103540008A42334609D1302003F8010C269B5A1ECB
:10355000269213F8012C9142F6D0392A0BBF0F9A0C
:103560000132927AD2B203F8012CA0E530238DF813
:10357000843078230CE5002B08BF01230793069BBA
:1035800043F480731093139BB3F1000AFFF6BCAEB3
:10359000079E019626AD23A8CDE90305DDE9125665
:1035A00022AA0223029200932A46334648468B46BB
:1035B0000C9100F019FACDF870B00746AB46D6E68C
:1035C00006230793FFF755BA5846514622AA02F040
:1035D000C7FE00224FF07F53FDF748F90022002379
:1035E00082468B46FDF7AAFB08B101232293564B76
:1035F0000F9305E5002972D130228DF892200DF14C
:103600009302303302F8013B24ABD31A1993FFF72E
:10361000BCBA04F10F02D2B20121FFF774BA0C93C5
:1036200073E6672418990B78FF2B00F0898000253A
:10363000109A284603E001300131FF2B08D0934255
:1036400006DAD21A4B78002BF5D10B780135F4E766
:103650001891109214900F950F9A149B0A99134485
:103660001B9A02FB03130A9323EAE37AFFF7A5BA36
:10367000159B02EB030A51440A916624CDE6139B85
:10368000324F002BB4BF2D229DF88320304BB8BFA2
:103690008DF88320FEF79CBC109B0A9348E5DDF86B
:1036A0002CB0FEF73DBF5846514600220023FDF7DF
:1036B00045FB00287FF48DAE079BC3F101032293E5
:1036C00088E60F9BD9077FF56BAAFFF765BAC3F1B0
:1036D00001031A440A9222EAE27A672433E50DF1E3
:1036E00092028EE703F00106079B56EA030205D11A
:1036F0004FF0010ACDF828A0662424E5159A02F1BE
:10370000010A53440A9323EAE37A66241BE50D9BDE
:10371000747853F8041B0D93164641EAE172079240
:10372000FEF7C9BA02231993FFF72FBADDF82CB0C0
:10373000BBF80C3043F04003ABF80C30FEF7F0BEA2
:1037400000230F93149387E7AC790008A47900084D
:10375000A8790008F0790008F0B50C46ADF26C4D80
:103760008989B4F80EC0ADF80EC01F46636E199378
:103770001546636AE269079221F002011AAA064619
:10378000ADF80C10099300214FF4806316A8069140
:10379000009204920293059301F0BCFC2A463B463A
:1037A00069463046FEF716FA051E07DB30466946C5
:1037B00001F01CF9002818BF4FF0FF35BDF80C30A0
:1037C0005B0603D5A38943F04003A381169801F05B
:1037D000A3FC28460DF26C4DF0BD00BF38B5324B4E
:1037E0001B6805460C4613B19A6B002A3CD0B4F90D
:1037F0000C3018079AB20CD52169A9B112F001005A
:1038000022D0606900254042A061A56011B300206C
:1038100038BDD10640D552072AD4216943F00803A8
:10382000A3819AB20029E9D102F42070B0F5007F9B
:10383000E4D02846214601F0A3FCB4F90C302169FC
:103840009AB212F00100DCD1950758BF6069A06000
:103850000029DCD1120658BF0846D9D543F04003F1
:10386000A3814FF0FF3038BD184601F01BF9BEE7C9
:10387000216B51B104F14002914204D0284601F07D
:10388000ADF9B4F90C3000222263216921600022D5
:10389000626023F02403C1E743F0400309222A6059
:1038A0004FF0FF30A38138BD14000020024B13B14C
:1038B000024800F005B8704700000000114B0008F6
:1038C000002301461A46184603F048BD2DE9F04F83
:1038D00003690E69B34283B0C0F28280013E01F1F8
:1038E000140700F1140A57F826305AF8262001333D
:1038F0008346B00000909A420AEB860007EB8609E7
:103900000190B2FBF3F836D300252A46BC46504658
:103910005CF8044B03681FFA84FE08FB0E554FEA5F
:10392000154E240C08FB04E4ADB2551BA2B2C2EB49
:10393000134215FA83F302EB23429BB243EA02439C
:10394000E14540F8043B4FEA14454FEA2242DFD2FA
:10395000009B5AF8033073B9019B043B9A4504D38A
:1039600007E09A4506F1FF3603D253F80429002AEE
:10397000F7D0CBF81060584602F0DEF900282BDBB8
:1039800008F101085046002357F8041B04688AB266
:103990009A1A0B0C12FA84F2C3EB144303EB224382
:1039A00092B242EA0342B94540F8042B4FEA23435E
:1039B000EAD25AF826200AEB86036AB9043B9A45F4
:1039C00004D307E09A4506F1FF3603D253F80429E1
:1039D000002AF7D0CBF81060404603B0BDE8F08F66
:1039E000002003B0BDE8F08F2DE9F04F016C9BB0D3
:1039F00090469946CDE90489279D044641B1426C21
:103A00004A60012393408B6001F066FF002323642A
:103A1000B9F1000AB4BF012300232B60764BBCBF71
:103A20002AF0004ACDF814A033EA0A0300F0AA8075
:103A3000DDE90423CDE90A231046194600220023BC
:103A4000FDF77CF9074670B1269A01231360289B85
:103A5000002B00F0BF8269481860431E039303984F
:103A60001BB0BDE8F08F18AA19ABCDE90032204693
:103A7000DDE90A2302F022FA5FEA1A56054640F011
:103A80009780DDE918763E4406F23240202840F364
:103A90009283C0F1400306F212400AFA03FA28FAB0
:103AA00000F04AEA0000FCF767FE0123013EA1F1A5
:103AB000F8710F93524B0022FCF720FD48A3D3E985
:103AC0000023FCF7D3FE48A3D3E90023FCF718FD3D
:103AD000804630468946FCF75FFE45A3D3E90023C4
:103AE000FCF7C4FE02460B4640464946FCF708FD7B
:103AF00080468946FDF76AF9002283460023404646
:103B00004946FDF725F9002840F05782BBF1160F12
:103B100000F246823B4B03EBCB03D3E90023DDE904
:103B20000A01FDF715F9002872D00023BE1B0E9381
:103B3000731E0BF1FF3B069300F1398200230993BA
:103B4000BBF1000F6BDA099BCDF81CB0A3EB0B03A4
:103B50000993CBF100030D93249B092B4FF0000B2D
:103B600066D8052B40F32583043B24930026249B31
:103B7000023B032B00F27086DFE813F03E043B04A7
:103B800032041504269A42F20F73CAF3130A136023
:103B90005AEA08031AD1289B002B00F06C861A4BB6
:103BA00003930833289A039813601BB0BDE8F08F85
:103BB000DDE90A12C2F31303084643F07F510F9761
:103BC000A6F2FF36189F41F4401173E7289B002BA3
:103BD00040F0CD830D4B039341E700BFAFF300806E
:103BE00061436F63A787D23FB3C8608B288AC63F03
:103BF000FB799F501344D33F0000F07FDD7900082C
:103C00000000F83F487B0008047A0008007A0008AA
:103C1000BE1B731E069300F1B4840E900990069BA0
:103C20005B44CDE9063B00230D93249B092B98D9D7
:103C300000230126249325934FF0FF330C9608931D
:103C4000089B129300216164204601F01FFE03903F
:103C5000002800F00986039B2364089B0E2B00F2CA
:103C6000EE80002E00F0EB800799002940F35D8480
:103C7000C44B01F00F0203EBC2034FEA2118C90540
:103C8000D3E9006740F1F783BF4BDDE90A01D3E9CF
:103C90000823FCF715FFCDE9100108F00F084FF0DD
:103CA000030AB8F1000F13D0DFF8DC9218F0010F0F
:103CB00009D030463946D9E90023FCF7D7FD0AF18F
:103CC000010A06460F465FEA680809F10809EDD1C6
:103CD000DDE9100132463B46FCF7F2FE804689469C
:103CE0000E9B43B1A94B002240464946FDF730F8F0
:103CF000002840F035855046FCF74EFD42464B46C5
:103D0000FCF7B4FDA24B0022FCF7FAFB089B064629
:103D1000A1F15077002B00F0D383079B1393089BEE
:103D200010930C9B002B00F0B584109A954B994989
:103D300003EBC20353E902230020FCF7C1FE324625
:103D40003B46FCF7DBFB02460B4640464946CDE9C5
:103D50001423FDF73BF80746FCF71EFD02460B4611
:103D600040464946FCF7CAFB039E303780468946E9
:103D700002460B4606F8017BDDE91401FDF706F863
:103D8000002840F03785CDE9165B109F1094B346AC
:103D90004FF0000ADDE914562CE00AF1010ABA4599
:103DA0004ADA7D4B284631460022FCF75FFD7A4B0C
:103DB000002204460D4640464946FCF757FD894619
:103DC0008046FDF703F82E4625460446FCF7E4FC42
:103DD00002460B4640464946FCF790FB30340BF850
:103DE000014B2A46334680468946FCF7B1FF00283E
:103DF00040F0FD8442464B4664490020FCF77EFBC0
:103E00002A463346FCF7A4FF0028C6D0139B169D14
:103E1000109C039A07935E4602E0964200F0CC8421
:103E2000B24616F8013D392BF7D00133DBB23370BF
:103E3000079B013307939EE1DDE9165B109C199BFC
:103E4000002B7CDB079A0E2A79DC4E4B03EBC20376
:103E5000D3E900AB259B002B1BDA089B002B18DC59
:103E600040F0C0844D4B002250465946FCF7FEFC02
:103E700002460B46DDE90A01FCF774FFDDF82090ED
:103E80004E46002800F0D082259BDDF80C80DF43F1
:103E9000D3E2DDE90A6752465B4630463946FCF715
:103EA0000FFEFCF793FF80460490FCF775FC52462A
:103EB0005B46FCF7DBFC0B46024639463046FCF716
:103EC0001DFB039E4346303306F8013B089B012B44
:103ED00000F0878301270495984606941CE052461B
:103EE0005B4620462946FCF7EBFDFCF76FFF814659
:103EF000FCF752FC52465B46FCF7B8FC01370B4618
:103F0000024629462046FCF7F9FA09F13003B84584
:103F100006F8013B00F061831F4B0022FCF7A6FC72
:103F20000022002304460D46FCF708FF0028D6D0E7
:103F3000049D069C079B01330793B2461BE10C9A34
:103F4000002A4DD0249A012A40F3D882089B03F11D
:103F5000FF380D9B4345C0F28582A3EB0808089B00
:103F6000002BC0F26F83069A1146099A194417462E
:103F70001A44069109920121204601F057FD064698
:103F800032E000BF487B0008207B00080000F03FC3
:103F900000001C400000E03F0000244000001440EE
:103FA0000123BE1B0E93731E06937FF5C7ADC6F1AA
:103FB0000103099300230693C2E55846FCF7ECFB86
:103FC00042464B46FCF7BAFE00287FF49FAD0BF14A
:103FD000FF3B9BE5C84B039303981BB0BDE8F08FF4
:103FE000DDF83480099F0C9E002F0CDD069A002A14
:103FF00009DD0999BA421346A8BF3B46C91AFF1A00
:10400000D31A099106930D9BE3B10C9B002B00F092
:10401000A781B8F1000F10DD31464246204601F07D
:10402000CBFD2A4601460646204601F015FD2946ED
:10403000034620461D4601F04FFC0D9BB3EB0802E2
:1040400040F08F810121204601F0F0FCBBF1000F10
:10405000814600F3B580249B012B40F38C814FF007
:10406000000A0120BBF1000F40F0B680069A104410
:1040700010F01F0000F09480C0F12003042B40F3E7
:10408000FE83099BC0F11C000344024409930744CA
:104090000692099B002B05DD29461A46204601F0B1
:1040A000D7FD0546069B002B05DD49461A462046EE
:1040B00001F0CEFD81460E9B002B40F03681089B1F
:1040C000002B40F31B810C9B002B40F09C80079B36
:1040D00001330793DDF80C80DDF820A0012707E00D
:1040E000294600230A22204601F000FC013705463C
:1040F00049462846FFF7EAFB574500F1300308F828
:10410000013BEDDB089A002AC8BF9346039AD8BF4B
:104110004FF0010B934400272946012220460493C7
:1041200001F096FD4946054601F006FE002840F3E1
:10413000AE811BF8013C039A0BF1FF3B04E05A45AA
:1041400000F0EC811BF8013D392B0BF1010AF6D090
:1041500001338BF800304946204601F0BDFB56B1D3
:104160002FB1B74203D03946204601F0B5FB3146A6
:10417000204601F0B1FB2946204601F0ADFB0023AB
:104180008AF80030269B1A46079B1360289B002B59
:104190003FF465AC0398C3F800A01BB0BDE8F08FF6
:1041A0001C20099B03440993069B03440744069380
:1041B0006FE70126DBE4C0F1200008FA00F072E4AA
:1041C00001465A46204601F0F7FC249B012B81460C
:1041D00040F3D9814FF0000AD9F8103009EB83037E
:1041E000186901F0D3FBC0F120003FE731460023FE
:1041F0000A22204601F07AFB129B002B064640F370
:104200001783CDE90783002F00F32581BAF1000F52
:1042100040F00182B046049B2499039F03F0010201
:104220000C920A430A92089A7B1E1A440992494644
:104230002846FFF74BFB31468346284601F07CFDBC
:10424000424649468246204601F094FDC268014636
:104250000BF13003002A42D106902846089301F062
:104260006BFD06990490204601F036FB049A089BEA
:104270001AB90A99002900F0CD82BAF1000FC0F2F4
:104280008E81249941EA0A0A0C9951EA0A0100F048
:104290008681002A00F3DA81099A3B7007F1010A4E
:1042A0009742D34600F0EC81294600230A2220469B
:1042B00001F01CFB4645054631464FF000034FF028
:1042C0000A02204612D001F011FB414606460023A7
:1042D0000A22204601F00AFB57468046A7E72046FF
:1042E000049301F0F9FA049B0122C6E701F0FEFAFB
:1042F0005746064680469AE7DC790008249B022B45
:1043000000F381800C9B002B7FF47DAF494628464B
:10431000FFF7DCFA079ADDF80CB000F13003013248
:104320000BF8013B07920027F6E64946284601F0C4
:1043300003FD0028BFF6C3AE294600230A2220460B
:1043400001F0D4FA079B03F1FF380C9B0546002BC4
:104350007FF44CAF129B002B40F363820893B9E6C5
:104360000D9A2946204601F027FC05466AE6BE4B19
:104370000393033316E4DDE9041200297FF46FAEE2
:10438000C2F31303002B7FF46AAEB84B1340002B2B
:1043900000F02682099B01330993069B01330693A3
:1043A0004FF0010A5DE601230C93259B079A134405
:1043B00012930133012B1F460893B8BF0127002138
:1043C000172F61647FF740AC012204235B0003F1E7
:1043D0001400B842114602F10102F7D9616433E4D6
:1043E00001230C93259B002B4CDD129308931F4651
:1043F000E5E700230C93D8E700230C93F2E7129B28
:10440000CDF81C800893089B002B7FF43DAD4946F6
:104410000522204601F06AFA01468146284601F04D
:104420008BFC00287FF730ADDDF80C80079F4346FA
:10443000312203F8012B013703934946204601F04E
:104440004BFA7B1CDDF80CA00793CDF80C80002EF6
:104450007FF48DAE8FE631463A46204601F0F8FBF8
:104460000646D3E60D9BCDF83480A8EB03039B44AE
:104470004FF0000873E5DDE90A234FF0020ACDE9A9
:1044800010230EE4012325930893FFF7D9BB03D132
:10449000049BDB073FF54DAEDA461BF8013D302BA0
:1044A000FAD058E65046FCF777F942464B46FCF7FF
:1044B000DDF96F4B0022FCF723F80646A1F1507797
:1044C0006C4B404649460022FCF718F832468946B4
:1044D00080463B46CDE91089FCF758FC8146002810
:1044E00040F07A81DDE91001324607F10043FCF724
:1044F0002FFC00283FF4A3AC4E46C5E40F9A002AD7
:1045000000F0C48003F23343069ADDF834801A4485
:104510000692099A17461A4409922CE5079A013225
:104520000792039A3123137015E600F03F81079B31
:104530005E42514B06F00F0203EBC203D3E90023A6
:10454000DDE90A01FCF792F936118046894600F050
:1045500078814A4F00234FF0020AF20706D5D7E9C7
:104560000023FCF783F90AF1010A0123761007F111
:104570000807F2D1002B3FF4B3AB80468946FFF722
:10458000AFBB0E9013E5049B002B7FF423AEDDE957
:104590000412C2F31303002B3FF4F7AE1AE6002A0D
:1045A00012DD294601222046049301F051FB4946C1
:1045B000054601F0C1FB0028049B40F32581392BFF
:1045C00000F000810BF13103BA4637460AF8013B8F
:1045D000079B013307934646BDE5069C049DCDF835
:1045E000109002460B46FBF78BFF52465B46804617
:1045F0008946FCF7CBFB60B952465B4640464946CC
:10460000FCF79CFB00283FF495AC049BD9077FF591
:1046100091AC039A04E47168204601F037F907462B
:10462000002800F01281336902339A0006F10C0170
:104630000C30FBF7C5FE39460122204601F008FB8D
:104640008046E8E5DDE908239F1A94E4392B00F061
:10465000B980BA4601330AF8013B079B013337465C
:104660000793464677E500BF007A00080000F07F18
:1046700000001C4000001440487B0008207B00081C
:10468000079A013237460792464645E5189BC3F123
:10469000360339E7109B824901EBC30132463B46A2
:1046A00051E90201FCF7E2F802460B464046494652
:1046B000CDE91423FCF78AFB0746FCF76DF80B469F
:1046C000024649464046FBF719FF109B039E3037D0
:1046D000012B06F8017B804689461ED0109B039A69
:1046E00013441F466F4B002240464946FCF7BEF874
:1046F00089468046FCF76AFB8246FCF74DF80AF1D2
:10470000300A02460B4640464946FBF7F7FE06F8DC
:1047100001ABBE4280468946E4D1634B0022DDE90D
:104720001401FBF7EDFE42464B46FCF711FB002857
:1047300065D1DDE914235C490020FBF7DFFE42462A
:104740004B46FCF723FB00283FF479ABB246013E11
:104750001AF8013C302BF9D0139B013307930AE57B
:10476000089B002B3FF49EAE129B002B7FF767AB9C
:104770004C4B002240464946FCF778F88046894673
:104780000AF10100FCF708F842464B46FCF76EF8C8
:10479000464B0022FBF7B4FE079A129B1093013A96
:1047A0000646A1F150771392FFF7BBBADDE90A89FB
:1047B0004FF0020AFFF794BA079B013307933123A6
:1047C000FFF735BB079ABB463923013237460BF852
:1047D000013B07924646AEE44FF000094E4623E601
:1047E0009A463EE44FF000094E46FFF74DBB169D3A
:1047F000109C5E46139B01330793B246BBE4139BA8
:10480000039A0793FFF70CBB7FF4DEAEDA077FF560
:10481000DBAED4E6392BD5D0BAF1000F3FF7D2AEDC
:10482000D2E6249B022B3FF7EAADCDF81C806DE564
:10483000249B022B3FF7E3AD129BCDF81C8008931D
:10484000E1E44FF0020AFFF74BBA0246184B194851
:1048500040F2EA2102F0C8FD002666643146204697
:1048600001F014F8039078B9114B124800224FF46C
:10487000D57102F0B9FD104B0393FFF7F0B83FF488
:1048800008ACC0F13C008CE44FF0FF33039A129364
:1048900008930123226425960C93FFF7D0BA00BF3A
:1048A000487B0008000024400000E03F00001C405E
:1048B000107A0008247A0008047A0008B1F90C2064
:1048C0002DE9F0410D461107804647D46B6842F44C
:1048D0000062002BAA815DDDAC6A002C57D000235A
:1048E000D8F80060C8F8003093B212F4805255D165
:1048F0000123E9694046A047431C66D0AB89AC6AF6
:104900005F0705D56A682B6B801A0BB1EB6BC01A79
:10491000E969024600234046A047411C40D1D8F82F
:104920000030002B3CD01D2B01D0162B55D1AB896C
:104930002A692A6023F400630022AB816A60296B34
:10494000C8F8006019B305F14003994202D040460F
:1049500000F044F900202863BDE8F0812F69B7B169
:1049600093B22E682F609A070CBF6B690023F61B69
:10497000AB600AE06C6AE96933463A464046A047B4
:10498000041EA6EB0406274417DD002EF2DC0020EF
:10499000BDE8F081EB6B002B9EDCF8E7286DAFE7FC
:1049A000B5F90C302A692A6023F400630022AB8138
:1049B000DB046A60C3D52865C1E7AB8943F04003D7
:1049C000AB814FF0FF30BDE8F081D8F80030002B0C
:1049D00094D01D2B06D0162B04D0AB8943F0400396
:1049E000AB81D5E7C8F80060D1E700BF38B50C4609
:1049F000054608B1836BA3B1B4F90C00B8B1636E7E
:104A0000DB0701D4810515D528462146FFF756FF5F
:104A1000636EDA07054602D4A3899B050ED52846A6
:104A200038BD00F03FF8B4F90C000028E7D1054686
:104A3000284638BDA06D00F071FBE5E7A06D00F0E1
:104A40006FFB284638BD00BF10B500230446C0E9FF
:104A50000033C0E904338181C2818360436683618E
:104A6000194608225C30FCF72BFF07480749084A23
:104A7000084BE362C4E90740C4E9091204F1580095
:104A8000BDE8104000F046BBF5630008196400085B
:104A90005964000879640008014900F013BB00BFA5
:104AA000A974000810B50446114800F037FBA26B4A
:104AB000C2B904F53B730F48C4F8E0220321C4E9EE
:104AC000B913E06304216068FFF7BEFFA06801220C
:104AD0000921FFF7B9FFE06802221221FFF7B4FFB6
:104AE0000123A363BDE81040014800F019BB00BFDB
:104AF000240A0020994A0008014800F00FBB00BFBB
:104B0000380A0020014800F00BBB00BF380A002023
:104B100038B5084B084D5B1B9C1007D0043B1D4467
:104B2000013C55F804399847002CF9D1BDE83840CC
:104B300002F00ABFA47D0008A07D0008F8B5244F4C
:104B40000C46064600F096FEBB685D68C4F57E61C3
:104B50000F3125F003054B1923F47F6323F00F0376
:104B6000A3F58054B4F5805F07DB0021304601F0E7
:104B70002FFCBB682B44984204D0304600F080FEE6
:104B80000020F8BD6142304601F022FC01300DD01A
:104B9000104AB96813682D1B45F0010530461B1BF0
:104BA0004D60136000F06CFE0120F8BD002130461E
:104BB00001F00EFCBA68831A0F2BDEDD064C0549A6
:104BC000246843F00103001B53600860D5E700BF71
:104BD00044040020E40900204C08002000295ED095
:104BE000F8B50C46064600F045FE54F8043CDFF8E4
:104BF000F0C123F00101A4F108004218DCF80870AC
:104C00005568974225F0030500F08880DF0755605E
:104C100033D454F8087CC01B0CF108048368A34209
:104C2000394469D05719D0F80CE07F68C3F80CE01C
:104C3000CEF80830FB0740F1968041F00103436055
:104C40001160B1F5007F33D2CB08DCF804400133AA
:104C50004A090121914021430CEBC3025CF8334027
:104C6000CCF80410083AC0E902424CF83300E06086
:104C70003046BDE8F84000F003BE53195B68DF071B
:104C80000ED429440CF108049368A34273D0D4686D
:104C9000DC6041F00102A36042604150D1E77047FF
:104CA00041F00103B1F5007F44F8043C1160CBD31F
:104CB000B1F5206F4FEA51234AD28B0903F1390530
:104CC000ED0003F138025CF805300CEB0504083CFC
:104CD0009C4259D05A6822F003028A4202D99B684A
:104CE0009C42F7D1DC68C0E90234A060D86030464D
:104CF000BDE8F84000F0C4BD53195B68DB0766D41B
:104D0000D2E90223294441F00104D3609A6044604F
:104D100041503046BDE8F84000F0B2BDDB07294401
:104D200007D454F8083CC01A1944D0E90223D360D0
:104D30009A60294B1B6841F001028B424260CCF81B
:104D4000080095D8254B30461968FFF7F7FE8FE726
:104D5000142B0AD9542B21D80B0B03F16F05ED004E
:104D600003F16E02AFE729448EE703F15C05ED0025
:104D700003F15B02A7E741F00103CCE90400C0E9BD
:104D800002444360415073E7DCF80410921001259F
:104D900005FA02F20A43CCF80420A4E7B3F5AA7F8F
:104DA00006D8CB0B03F17805ED0003F177028AE713
:104DB00040F25452934206D88B0C03F17D05ED006E
:104DC00003F17C027FE74FF47E757E227BE741F0A2
:104DD0000103436011604BE750080020140A0020D3
:104DE000440400209368002B00F08A802DE9F04FE6
:104DF0009046B1F90C200C46110783B0814693B25E
:104E000025D522691AB313F00207D8F800502DD027
:104E10000026DFF8ACB23746AA465F453B4632462D
:104E200028BF5B464846002F4FD0E169656AA84716
:104E300000285BDDD8F808301B1A06443F1AC8F872
:104E40000830002BE9D1002003B0BDE8F08F2146E7
:104E50004846FEF7C3FC002840F02F81B4F90C202F
:104E6000D8F8005093B213F00207D1D113F0010A21
:104E700048D156462EB39A05A76840F18C80B742B8
:104E8000BB4600F2B78013F4906F40F0CB802068EF
:104E90005A46514600F082FCA2682368D21B5B444C
:104EA0003746A26023600026D8F80830DB1BBA44DE
:104EB000C8F80830002BC6D0B4F90C309BB2002ED5
:104EC000D9D1D5E900A60835D4E7DAE900670AF1B7
:104ED000080AA2E729465A4600F060FC23685B44B2
:104EE000236021464846FFF781FD58B3B4F90C30E2
:104EF00043F040034FF0FF30A38103B0BDE8F08FD3
:104F0000002070473E46AA4638463D4600976EB39D
:104F1000002833D0009A2068D4E90413B24228BF95
:104F20003246884204D9A16803EB010B5A45D1DC13
:104F300093426ADCE169676A2A464846B847B0F19D
:104F4000000BD3DD009BB3EB0B03009356D0012085
:104F5000D8F80830A3EB0B035D44A6EB0B06C8F8AA
:104F60000830002B3FF46FAF002ED1D10AF10803B7
:104F700053E902569A460833002EF9D032460A21E8
:104F80002846FBF7CDF9002800F08E800130431B46
:104F900000931A46BFE720682369984214D86169D4
:104FA000B14211D86FF00043B34228BF3346676A5D
:104FB00093FBF1F3524601FB03F34846E169B8471E
:104FC000071E93DDF61B6FE7B74228BF37463A4608
:104FD000514600F0E3FBA3682268DB1B3A44A36060
:104FE0002260002BEED121464846FFF7FFFC002847
:104FF000E8D07BE720683746B34649E72146484674
:10500000FFF7F4FC0028A3D070E72946019200F0D6
:10501000C5FB019AA1682368891A1344A160236023
:1050200093468FE7D4E90417226807EB4707A2EB02
:10503000010B07EBD7770BF101007F103044B8422A
:105040003A4684BF07463A465B051BD5114648469B
:1050500000F0EAF858B35A4621690090FBF7B0F91E
:10506000A289009B22F4906242F08002A281A7EB09
:105070000B0203EB0B00676123612060A2603746DF
:10508000B34605E7484600F07BFF03460028EED113
:1050900021694846FFF7A2FDB4F90C300C2223F039
:1050A0008003C9F8002023E7721C009233E70C2329
:1050B000C9F80030B4F90C301AE74FF0FF30C3E6FE
:1050C00000FCFF7F2DE9F8430746884600F5387657
:1050D0004FF00009D6E90154013D11D4A389012BF9
:1050E00005F1FF3508D9B4F90E30013304D021465B
:1050F0003846C04749EA00096B1C04F16804EDD149
:105100003668002EE6D14846BDE8F883004870476F
:1051100044090020704700BF704700BF704700BFC0
:10512000704700BF70B50C46B1F90E10002996B05B
:1051300015461E4614DB6A4602F0B8FA00280FDB5B
:10514000019A02F47042A2F50052B2FA82F25209B8
:105150004FF480634FF4006032602B6016B070BD76
:10516000A189002311F08000336004D0402218464A
:105170002A6016B070BD4FF480632B6016B070BD0E
:1051800070B58B899D0782B00C4607D501F14303AA
:105190000122C1E904320B6002B070BD01AB6A4666
:1051A0000646FFF7BFFF00990546304600F03CF881
:1051B000B4F90C30024670B11648F06301990098BA
:1051C000226043F08003C4E90420A38189B92B4302
:1051D000A38102B070BD9A05DED423F0030304F16D
:1051E000430243F002030121C4E90421A3812260A8
:1051F000D2E7B4F90E10304602F06EFA10B9B4F9E5
:105200000C30E4E7A28922F0030242F0010213B25B
:10521000DDE700BF994A0008024B0146186800F01C
:1052200003B800BF140000202DE9F04F01F10B0579
:10523000162D83B0064624D8102900F2B78000F05E
:1052400019FB102502211823DFF8F0844344A3F151
:1052500008025C68944200F0B580636823F00303A1
:105260002344D4E902515A68E96042F00102304611
:105270008D605A6000F004FB0834204603B0BDE89E
:10528000F08F35F0070500F19180A94200F28E8081
:1052900000F0F0FAB5F5FC7FC0F090816B0A00F0E9
:1052A0008C80042B00F26681AB0903F1390103F114
:1052B0003807CB00DFF884844344A3F108005C681E
:1052C000A04206D10CE0002A80F22281E468A042CC
:1052D00006D0636823F003035A1B0F2AF3DD394617
:1052E000D8F81040DFF858C4644577D0626822F0DF
:1052F0000302531B0F2B00F36F81002BC8E904CC72
:1053000080F26081B2F5007F80F01081D308013314
:10531000500901228240D8F8040058F83370A76081
:1053200008EBC30E0243AEF10800E060C8F80420A9
:1053300048F83340FC608B1001209840904254D8CC
:10534000104206D121F003014000104201F1040196
:10535000FAD008EBC1094C468E46E768BC4207D13B
:1053600014E1002B80F21B81FF68BC4200F00E812B
:105370007A6822F00302531B0F2BF2DDD7E902E417
:10538000791945F001057D6043F00105CEF80C4028
:105390003046C4F808E0C8E90411C1E902CC4D6008
:1053A000BB5000F06DFA07F1080402E00C233360F3
:1053B0000024204603B0BDE8F08F4FF40073402175
:1053C0003F2777E7DC68A34208BF02317FF445AF8F
:1053D000D8F81040DFF868C3644587D1D8F80420B6
:1053E0008B10012098409042AAD9D8F808406768ED
:1053F00027F00307BD4202D87B1B0F2B77DCDFF8B9
:105400004493CA4BD9F800201B6801322B4404EBAB
:10541000070A00F02E8103F580530F3323F47F6BCE
:105420002BF00F0B5946304600F0D2FF411C0246CC
:1054300000F0EB80824500F2E680BD4B19685944CC
:105440001960084600F04B81D9F800100193013132
:105450001BBFA2EB0A0A5044C9F80020186012F0E2
:10546000070A00F01481CAF108010A44CAF5805104
:1054700093440831A1EB0B01C1F30B0949463046B7
:10548000009200F0A5FF421CDDE9002300F05C81E2
:10549000801A00EB090B1968C8F808204BF00100CE
:1054A000494444455060196000F026810F2F40F2B6
:1054B000258160680C3F27F0070700F0010004EB2E
:1054C000070C38434FF0050E0F2F6060CCE901EE5A
:1054D00000F2428150681446964B1A688A4238BFDF
:1054E0001960954B1A688A4238BF196090E06219BA
:1054F00043F0010345F0010565603046C8F8082017
:10550000536000F0BDF90834204603B0BDE8F08FC9
:105510002344E1685A68A56842F00102E960304618
:105520008D605A6000F0ACF9083442E7B2F5206FA4
:105530004FEA522361D3142B00F2BA8003F15C00CE
:10554000C0005B3308EB000758F80000083F8742B3
:1055500000F09280436823F00303934202D98068ED
:105560008742F7D1C768D8F80420C4E90207BC60B5
:10557000C460E0E6142B59D9542B00F2A1802B0B08
:1055800003F16F0103F16E07CB0093E60EF1010EFC
:105590001EF0030F04F108047FF4DFAE51E03A443B
:1055A0003C465368F96854F8085F43F001035360C0
:1055B0003046E9608D6000F063F9FAE6E90805F12C
:1055C000080341E622443046536843F00103536028
:1055D000083400F055F9ECE6611943F0010745F095
:1055E000010565603046C8E90411C1E902CC4F608D
:1055F000A35000F045F90834DBE6930903F13900C4
:10560000C00038339EE7444564D0D8F8084060684D
:1056100020F0030B5D45ABEB050302D80F2B3FF7E2
:1056200066AF304600F02CF90024C2E603F15C01BD
:1056300003F15B07CB003DE659F808394B4540F0D4
:10564000AA8011F0030F01F1FF31F5D1D8F8043031
:1056500023EA0003C8F80430400098423FF6C5AE84
:1056600018B9C2E640000EF1040E1842FAD0714695
:105670006FE603F1100BD5E69A104FF0010ED8F843
:1056800004300EFA02F21A43C8F804206DE702EB68
:105690000B014942C1F30B0949463046009200F024
:1056A00097FE431CDDE900237FF4F2AED146F2E61B
:1056B000542B26D8130B03F16F00C0006E3341E763
:1056C000B3F5AA7F26D8EB0B03F1780103F1770736
:1056D000CB00EFE5164B186858441860B4E6CAF3DF
:1056E0000B0CBCF1000F7FF4AFAED8F80840BB4400
:1056F0004BF001006060EFE61446EDE601235360D5
:105700008FE7B3F5AA7F33D8D30B03F17800C0003D
:10571000773317E740F25452934233D8AB0C03F17E
:105720007D0103F17C07CB00C4E500BF140A002013
:10573000E40900200C0A0020100A00204404002084
:105740004C0400204C080020AAF1080AD344ABEB1B
:10575000020B4FF000099EE604F108013046009369
:10576000FFF73CFAD8F80840009B60681968B3E678
:1057700040F2545083420AD8930C03F17D00C000DC
:105780007C33DFE64FF47E737F217E2792E54FF472
:105790007E707E23D6E6D8F804305DE78842F0B408
:1057A0000DD98B1883420AD9841832B1224613F8D6
:1057B000014D02F8014D9942F9D1F0BC70470F2A12
:1057C0000ED80346541E002AF7D001340C44013B86
:1057D00011F8012B03F8012FA142F9D1F0BC704759
:1057E00040EA01039B073FD1A2F1100323F00F040D
:1057F00001F1200727441B0901F1100400F11005F5
:1058000054F8106C45F8106C54F80C6C45F80C6C9E
:1058100054F8086C45F8086C54F8046C45F8046CAE
:105820001034BC4205F11005EAD1013312F00C0F1F
:1058300001EB031102F00F0400EB031317D0043C3B
:1058400024F0030CA5089C441C1F0E4656F8047B4C
:1058500044F8047F6445F9D16C1C03EB840301EB2D
:10586000840102F00302ADE7541E0346ADE7224671
:10587000A8E700BF0148FFF751BC00BF280A00207D
:105880000148FFF74DBC00BF280A0020C36C70B56B
:1058900005460C464BB153F8240080B1026843F82A
:1058A00024200023C0E9033370BD2122042101F02C
:1058B000B9FD0346E8640028EDD1002070BD012148
:1058C00001FA04F6721D2846920001F0ABFD002893
:1058D000F3D0C0E90146E4E731B1C36C4A6853F83C
:1058E0002200086043F82210704700BF2DE9F04104
:1058F0000E690F4680461C4601F114000021056820
:10590000ABB202FB03432C0C1D0C02FB04549BB2F4
:10591000013103EB04438E4240F8043B4FEA144448
:10592000EDDC3CB1BB68B34207DD07EB8603013613
:105930005C613E613846BDE8F081796840460131DE
:10594000FFF7A4FF0546B0B13A69023207F10C0136
:1059500092000C30FAF734FDD8F84C307A6853F8DE
:105960002210396043F822702F4607EB8603013678
:105970005C613E61DEE70246024B0348B52101F05F
:1059800033FD00BF107A0008A07A0008020C120450
:105990000346CAB90304102013F07F4F04BF1B0253
:1059A000083013F0704F04BF1B01043013F0404F58
:1059B00004BF9B000230002B05DB13F0804F00F189
:1059C000010008BF202070470020E5E7036813F0BE
:1059D0000702014607D0DA0720D4980722D55B08D2
:1059E0000B600120704798B2A8B1104613F0FF0F6A
:1059F00004BF1B0A08301A0704BF1B0904309A07AA
:105A000004BF9B080230DA0703D45B0800F10100F1
:105A100006D00B6070471B0C1020E7E70020704792
:105A2000202070479B080B600220704710B50C4681
:105A30000121FFF72BFF024618B10123C0E904340E
:105A400010BD034B03484FF4A07101F0CDFC00BF23
:105A5000107A0008A07A00082DE9F04F0D69176947
:105A6000BD4285B00E46144605DB3A4623462F4616
:105A70000C4615461E46D4E9011307EB05084345BD
:105A8000B8BF0131FFF702FF0190002800F08880C5
:105A9000019B03F1140909EB880AD14505D24B4655
:105AA000002243F8042B9A45FBD806F1140E0EEBA6
:105AB000850B04F11403DE451A4603EB87073ED23B
:105AC0003B1B153B23F0030304331534A74238BFB7
:105AD0000423CDE902A89846924603E0F34509F174
:105AE00004092AD95EF8040B86B2002E38D1000CC6
:105AF000F4D0D9F8003054461E464D464FF0000C05
:105B00002288360C00FB0266B4449BB243EA0C4385
